:100000000C942A000C9447000C9447000C94470071
:100010000C9447000C9447000C9447000C94470044
:100020000C9447000C9447000C9447000C94470034
:100030000C9447000C9447000C9447000C94470024
:100040000C9447000C9447000C9447000C94470014
:100050000C94470011241FBECFE5D4E0DEBFCDBF16
:1000600010E0A0E6B0E0EEE9FAE002C005900D92E3
:10007000AA37B107D9F710E0AAE7B0E001C01D9296
:10008000A439B107E1F70E94BF010C944D050C940F
:1000900000008FEF88BB80E49CE90197F1F794E3BF
:1000A00098BB80E388BBE0E2FEE43197F1F798BBB0
:1000B00088BB20ED37E0F9013197F1F798BB88BB99
:1000C000C9010197F1F784E288BB80E288BBC901CE
:1000D0000197F1F70895382F307F232F246028BB34
:1000E00038BB90E024E0880F991F2A95E1F7282F6C
:1000F000246028BB88BB80EA9FE0FC013197F1F7C0
:100100000197F1F708958FEF87BB18BA0E94490055
:1001100084E288BB80E288BB54E858BB40E848BB17
:1001200020EA3FE0C9010197F1F7C9010197F1F712
:1001300094E098BB18BA84EC88BB80EC88BBF901CA
:100140003197F1F7F9013197F1F798BB18BA84E6C6
:1001500088BB80E688BBF9013197F1F7F901319747
:10016000F1F758BB48BB98BB18BAC9010197F1F722
:10017000C9010197F1F70895982F907F292F2560E5
:1001800028BB916098BB8295807F982F956098BB23
:10019000816088BB80EA9FE0FC013197F1F701970D
:1001A000F1F70895CF93DF93EC0102C00E94BC00E9
:1001B00089918823D9F7DF91CF910895CF92DF926B
:1001C000EF92FF920F931F937C016AE070E00E9410
:1001D0000205D62EC72E862F972F6AE070E00E9468
:1001E0000205162F072F862F972F6AE070E00E94D6
:1001F0000205CB016AE070E00E940205805D0E946A
:10020000BC00812F902F6AE070E00E940205805DA3
:100210000E94BC008D2D9C2D6AE070E00E940205BA
:10022000805D0E94BC00C7016AE070E00E94020588
:10023000805D0E94BC001F910F91FF90EF90DF90B6
:10024000CF9008958EEF81BB10BC87E689B986E810
:1002500080BD88E18AB98CE690E09093910080930C
:10026000900008951F93182F8A3019F48DE00E9492
:1002700032015D9BFECF1CB980E090E01F91089594
:100280005F9BFECF8CB1089589E08ABBDB9AD8983A
:1002900080ED97E00197F1F781E087B986EC86B9A8
:1002A0003699FECF84B180937E0095B1809386000D
:1002B000089586E08ABBDA9AD99880ED97E0019795
:1002C000F1F717B886EC86B93699FECF84B18093E2
:1002D000850095B180937D0008950E9444010E949D
:1002E000590180917A0090917B00FC01E957FF4F02
:1002F000209186002083FC01E158FF4F20917D0072
:100300002083019690937B0080937A00079794F066
:1003100010927B0010927A008091870090918B0060
:10032000891B80938D0080917F0090918300891BB1
:1003300080937C0000D000D080E690E0EDB7FEB75F
:100340009283818380918D00992787FD9095948376
:1003500083830E94700283E690E0EDB7FEB792833C
:10036000818380917C00992787FD90959483838376
:100370000E9470020F900F900F900F900895AF920F
:10038000BF92CF92DF92EF92FF920F931F93CF9382
:10039000DF9311BA8FEF82BB8EEF81BB10BC87E673
:1003A00089B986E880BD88E18AB98CE690E09093AF
:1003B00091008093900080EF8ABB80E395E728EC62
:1003C00030E0F9013197F1F70197D9F78FEF8BBB47
:1003D00080EA9FE028EC30E0F9013197F1F70197CE
:1003E000D9F71BBA88E59BE128EC30E0F901319799
:1003F000F1F70197D9F78FEF8BBB80EA9FE028ECEC
:1004000030E0F9013197F1F70197D9F71BBAC3E64C
:10041000D0E051E0A52EB12C07E610E043E0C42E59
:10042000D12C32E0E32EF12C0E946D01829909C09B
:1004300000D000D0EDB7FEB7D283C183B482A382CF
:1004400038C0839911C000D000D0EDB7FEB7D28379
:10045000C183148213820E947002EDB7FEB7D2836B
:10046000C183F482E3822DC083991BC0829919C095
:1004700000D000D0EDB7FEB7D283C18314821382BF
:100480000E947002EDB7FEB71283018314821382BB
:100490000E947002EDB7FEB712830183D482C3823B
:1004A00018C000D000D0EDB7FEB7D283C18314824C
:1004B00013820E947002EDB7FEB7D283C18314820B
:1004C00013820E947002EDB7FEB71283018314827B
:1004D00013820E9470020F900F900F900F90A4CF84
:1004E000A0E0B0E0E6E7F2E00C942605FE013596C8
:1004F000619171918091900090919100AF010E9463
:1005000085022096E2E00C944205ABE0B0E0EBE817
:10051000F2E00C9416053C012B015A01FC011782F4
:100520001682838181FD03C06FEF7FEFC6C19AE021
:10053000892E1E010894211C311CF3012381F20134
:1005400023FD859123FF81912F01882309F4B2C1F6
:10055000853239F423FD859123FF81912F01853266
:1005600029F490E0B3010E947804E7CF982FFF248C
:10057000EE249924FFE1FF15D0F09B3269F09C3204
:1005800028F4903259F0933291F40EC09D3249F024
:10059000903369F441E024C052E0F52A84E0F82A5F
:1005A00028C098E0F92A25C0E0E1FE2A22C0F7FC25
:1005B00029C0892F80538A3070F4F6FE05C0989CBC
:1005C000902C1124980E15C0E89CE02C1124E80E04
:1005D000F0E2FF2A0EC09E3229F4F6FC6BC140E423
:1005E000F42A07C09C3619F450E8F52A02C0983660
:1005F00049F4F20123FD959123FF91912F01992355
:1006000009F0B8CF892F8554833018F08052833099
:1006100038F444E050E0A40EB51E5FE359830FC0E8
:10062000933631F0933779F0933509F056C020C0F6
:10063000F5018081898342E050E0A40EB51E61017E
:1006400001E010E012C0F501C080D180F6FC03C0CB
:100650006FEF7FEF02C0692D70E042E050E0A40E22
:10066000B51EC6010E946D048C015FE7F52214C01F
:10067000F501C080D180F6FC03C06FEF7FEF02C0B0
:10068000692D70E042E050E0A40EB51EC6010E9444
:1006900062048C0150E8F52AF3FE07C01AC080E21C
:1006A00090E0B3010E947804EA948E2D90E0081740
:1006B0001907A8F30EC0F601F7FC8591F7FE8191AA
:1006C0006F0190E0B3010E947804E110EA940150B8
:1006D00010400115110579F7EAC0943611F09936EA
:1006E00069F5F7FE08C0F50120813181428153810F
:1006F00084E090E00AC0F501808191819C0144274B
:1007000037FD4095542F82E090E0A80EB91E9FE679
:10071000F92257FF09C050954095309521953F4FDC
:100720004F4F5F4FE0E8FE2ACA01B901A1012AE05C
:1007300030E00E94A404D82ED21840C0953729F486
:100740001F2D1F7E2AE030E01DC01F2D197F9F3610
:1007500061F0903720F4983509F0ACC00FC09037A5
:1007600039F0983709F0A6C004C028E030E00AC08C
:10077000106114FD146020E130E004C014FD166027
:1007800020E132E017FF08C0F501608171818281AC
:10079000938144E050E008C0F50180819181BC0163
:1007A00080E090E042E050E0A40EB51EA1010E945E
:1007B000A404D82ED2188FE7F82EF122F6FE0BC033
:1007C0005EEFF522D91438F4F4FE07C0F2FC05C040
:1007D0008FEEF82202C01D2D01C0192DF4FE0DC0B0
:1007E000FE01ED0DF11D8081803319F499EEF9229F
:1007F00008C01F5FF2FE05C003C08F2D867809F088
:100800001F5F0F2DF3FC14C0F0FE0FC01E1510F07B
:100810009D2C0BC09D2C9E0C911A1E2D06C080E2B3
:1008200090E0B3010E9478041F5F1E15C0F304C05E
:100830001E1510F4E11A01C0EE2404FF0FC080E37E
:1008400090E0B3010E94780402FF1DC001FD03C0C7
:1008500088E790E00EC088E590E00BC0802F867896
:1008600091F001FF02C08BE201C080E2F7FC8DE253
:1008700090E0B3010E94780406C080E390E0B301E9
:100880000E9478049A94D914C0F3DA94F101ED0D22
:10089000F11D808190E0B3010E947804DD20A9F76A
:1008A00006C080E290E0B3010E947804EA94EE2052
:1008B000C1F743CEF30166817781CB012B96E2E14C
:1008C0000C943205FC010590615070400110D8F77E
:1008D000809590958E0F9F1F0895FC016150704088
:1008E00001900110D8F7809590958E0F9F1F089565
:1008F0000F931F93CF93DF938C01EB018B8181FFCB
:100900001BC082FF0DC02E813F818C819D812817E5
:10091000390764F4E881F9810193F983E88306C01B
:10092000E885F985802F0995892B31F48E819F8187
:1009300001969F838E8302C00FEF1FEFC801DF91E6
:10094000CF911F910F910895FA01AA27283051F1F4
:10095000203181F1E8946F936E7F6E5F7F4F8F4FF0
:100960009F4FAF4FB1E03ED0B4E03CD0670F781F4F
:10097000891F9A1FA11D680F791F8A1F911DA11D34
:100980006A0F711D811D911DA11D20D009F468946D
:100990003F912AE0269F11243019305D3193DEF615
:1009A000CF010895462F4770405D4193B3E00FD0CB
:1009B000C9F7F6CF462F4F70405D4A3318F0495DB6
:1009C00031FD4052419302D0A9F7EACFB4E0A69599
:1009D0009795879577956795BA95C9F700976105BB
:1009E000710508959B01AC010A2E06945795479511
:1009F00037952795BA95C9F7620F731F841F951F06
:100A0000A01D0895AA1BBB1B51E107C0AA1FBB1F55
:100A1000A617B70710F0A61BB70B881F991F5A958A
:100A2000A9F780959095BC01CD0108952F923F9232
:100A30004F925F926F927F928F929F92AF92BF92EE
:100A4000CF92DF92EF92FF920F931F93CF93DF939A
:100A5000CDB7DEB7CA1BDB0B0FB6F894DEBF0FBEF7
:100A6000CDBF09942A88398848885F846E847D8444
:100A70008C849B84AA84B984C884DF80EE80FD8046
:100A80000C811B81AA81B981CE0FD11D0FB6F894BC
:0E0A9000DEBF0FBECDBFED010895F894FFCF7D
:100A9E002564002C2564002C25640A000000000249
:0A0AAE00000000003201000000000B
:00000001FF
