:100000000C942A000C9434000C9434000C943400AA
:100010000C9434000C9434000C9434000C94340090
:100020000C9434000C9434000C9434000C94340080
:100030000C9434000C9434000C9434000C94340070
:100040000C9434000C9434000C9434000C94340060
:100050000C94340011241FBECFE5D4E0DEBFCDBF29
:100060000E9451000C949E000C940000806687B999
:10007000379A86B1876086B990E04AE6369A349B13
:10008000FECF85B1280F311D842F8A95F1F79F5F30
:100090009830A1F783E0369527958A95E1F7C90155
:1000A0000895CF93DF938FE08ABB8FEF87BB88BB28
:1000B0001BBA84E00E943600EC0185E00E94360005
:1000C0009C01CE01815590400D9750F425363105A5
:1000D00038F02337310520F4D898D998DA982CC015
:1000E000CE0189974D9748F42536310530F02837F1
:1000F000310518F4D898D99A0CC0CE01CD97C19784
:1001000058F42F36310540F02639310528F4D89AB5
:10011000D998DA98DB9ACDCFCC54D040AC9748F43C
:100120002C35310530F42B32310518F0D898D99A96
:1001300002C0D89AD998DA9ADB98BBCFF894FFCF4F
:00000001FF
