:100000000C9432000C944F000C944F000C944F0051
:100010000C944F000C944F000C944F000C944F0024
:100020000C944F000C9451000C944F000C944F0012
:100030000C944F000C944F000C944F000C944F0004
:100040000C944F000C944F000C944F000C944F00F4
:100050000C944F0088224411AA66559988AA2266FA
:100060004455119911241FBECFE5D4E0DEBFCDBFAA
:1000700010E0A0E6B0E0E6E7F1E002C005900D92E6
:10008000A236B107D9F710E0A2E6B0E001C01D9298
:10009000A436B107E1F70E948C000C94B9000C94CF
:1000A00000001F920F920FB60F9211242F933F93CF
:1000B0008F939F93EF93FF93809162008F5F809364
:1000C000620080916200209160003091610090E0B8
:1000D00082179307B1F4E0916300F0E0E45AFF4F18
:1000E000E491E5BB85B38BBB809163008F5F809308
:1000F000630080916300883010F0109263001092CA
:100100006200FF91EF919F918F913F912F910F90FE
:100110000FBE0F901F90189580EF8ABB8FEF84BBA6
:100120001BBA15BA12BE83E083BFF89481E089BF81
:1001300078944AE050E020E931E0809160009091AD
:10014000610001979093610080936000809160004E
:10015000909161001816190624F0509361004093A5
:10016000600088E893E1F9013197F1F7019729F3ED
:06017000FACFF894FFCF66
:020176000A007D
:00000001FF
