:100000000C942A000C9434000C9434000C943400AA
:100010000C9434000C9434000C9434000C94340090
:100020000C9434000C9434000C9434000C94340080
:100030000C9434000C9434000C9434000C94340070
:100040000C9434000C9434000C9434000C94340060
:100050000C94340011241FBECFE5D4E0DEBFCDBF29
:100060000E9436000C946A000C940000CF93DF933A
:1000700080EF81BB8ABB8FE082BB20EF40E25EE471
:10008000C0EEDEE2A0E6BDE6E0EAFFE060EA7CE882
:10009000809908C02BBBCA010197F1F71BBACA01AE
:1000A0000197F1F7819908C02BBBCE010197F1F7B9
:1000B0001BBACD010197F1F7829908C02BBBCF0184
:1000C0000197F1F71BBACB010197F1F78399E0CFC4
:0800D0002BBBDECFF894FFCF3B
:00000001FF
