:100000000C942A000C943F000C943F000C943F0089
:100010000C943F000C943F000C943F000C943F0064
:100020000C943F000C943F000C943F000C943F0054
:100030000C943F000C943F000C943F000C943F0044
:100040000C943F000C943F000C943F000C943F0034
:100050000C943F0011241FBECFE5D4E0DEBFCDBF1E
:1000600010E0A0E6B0E0E6EDF3E002C005900D92EE
:10007000AA37B107D9F70E945A010C94E9010C94F0
:1000800000009C01E199FECF3FBB2EBBE09A8DB3EF
:1000900008959C01E199FECF3FBB2EBB6DBB0FB60F
:1000A000F894E29AE19A0FBE08958FEF88BB88EC2E
:1000B00090E020E931E0F9013197F1F70197D9F7A4
:1000C00094E398BB80E388BBE0E4FCE93197F1F767
:1000D00098BB88BB20EA3FE0F9013197F1F798BB64
:1000E00088BBC9010197F1F784E288BB80E288BB35
:1000F000C9010197F1F70895382F307F232F24602D
:1001000028BB38BB90E024E0880F991F2A95E1F7BF
:10011000282F246028BB88BB80E49FE1FC01319735
:10012000F1F70197F1F70895982F907F292F256017
:1001300028BB916098BB8295807F982F956098BB73
:10014000816088BB80E49FE1FC013197F1F7019762
:10015000F1F70895CF93DF93EC0102C00E94940061
:1001600089918823D9F7DF91CF910895CF92DF92BB
:10017000EF92FF920F931F937C016AE070E00E9460
:10018000D501D62EC72E862F972F6AE070E00E94E9
:10019000D501162F072F862F972F6AE070E00E9457
:1001A000D501CB016AE070E00E94D501805D0E941C
:1001B0009400812F902F6AE070E00E94D501805D4D
:1001C0000E9494008D2D9C2D6AE070E00E94D50164
:1001D000805D0E949400C7016AE070E00E94D50132
:1001E000805D0E9494001F910F91FF90EF90DF902F
:1001F000CF9008950F931F93CF93DF938FEF87BB1B
:1002000018BA80E090E061E470E00E94AA018C01DD
:1002100082E090E061E470E00E94AA01EC010097A6
:1002200049F0BC016150704082E090E049E450E048
:100230000E94C0010B54164011F4CD2B09F4FFCFDE
:100240000E94550084E288BB80E288BB54E858BB1A
:1002500040E848BB20E43FE1C9010197F1F7C9013B
:100260000197F1F794E098BB18BA84EC88BB80EC56
:1002700088BBF9013197F1F7F9013197F1F798BB94
:1002800018BA84E688BB80E688BBF9013197F1F79C
:10029000F9013197F1F758BB48BB98BB18BAC901AF
:1002A0000197F1F7C9010197F1F7DF91CF911F9104
:1002B0000F910895CF92DF92EF92FF920F931F93C9
:1002C000CF93DF930E94FA0074E0F72EF8BA18BAC1
:1002D00084E188BB80E188BB00E41FE1C80101978D
:1002E000F1F7C8010197F1F780E690E00E94AA00BB
:1002F00084EC88BB80EC88BBF8BA18BAC8010197B7
:10030000F1F7C8010197F1F781E790E00E94AA0098
:1003100064E1C62E50E1D52E44E8E42E30E8F32EF9
:10032000C0E4DFE100E911E0C8BAD8BAE8BAF8BA27
:10033000CE010197F1F7CE010197F1F784EC99E036
:10034000F8013197F1F70197D9F785E090E00E9425
:10035000B600EACFDF92EF92FF920F931F937B01DB
:100360008C01FB010995D82EC8010196F70109956A
:10037000982F8D2D1F910F91FF90EF90DF90089592
:10038000DF92EF92FF920F931F93D72E7A018C0189
:10039000FA010995C80101966D2DF70109951F9184
:1003A0000F91FF90EF90DF900895AA1BBB1B51E1C6
:1003B00007C0AA1FBB1FA617B70710F0A61BB70BD5
:1003C000881F991F5A95A9F780959095BC01CD017A
:0603D0000895F894FFCF30
:1003D60041496D7320496E7465726163746976650F
:0A03E600004C43442044656D6F0095
:00000001FF
