:100000000C942A000C9447000C9447000C94470071
:100010000C9447000C9447000C9447000C94470044
:100020000C9447000C9447000C9447000C94470034
:100030000C9447000C9447000C9447000C94470024
:100040000C9447000C9447000C9447000C94470014
:100050000C94470011241FBECFE5D4E0DEBFCDBF16
:1000600010E0A0E6B0E0EAEDF0E102C005900D92EC
:10007000AC38B107D9F711E0ACE8B0E001C01D928F
:10008000A532B107E1F70E9421080C946B080C948B
:100090000000382F90919100A92FB0E0FD01EF5999
:1000A000FF4F80819F5F8317B9F7A0939100AE59EE
:1000B000BF4F8C9108952091910001C02E2FE22F07
:1000C000F0E0EF59FF4F9081E0919200F0919300A2
:1000D000EC56FF4F8081E22FEF5F981779F72E2FB4
:1000E0008091920090919300982F06C08081AB562A
:1000F000BF4F8C932F5F9F5FE22FF0E0EF59FF4FD0
:100100008081A92FB0E08E3E89F7AB56BF4F8C930C
:10011000809194008093610020E004C0AF59BF4FEC
:10012000EC932F5F822F90E0FC01EB56FF4FE081B4
:10013000DC011196EE3E91F7AF59BF4FEC93109250
:1001400091000895809194008093610021E005C0A2
:10015000EC56FF4F80818C932F5FE22FF0E080916F
:10016000920090919300DF01AF59BF4FE817F90754
:100170007CF31C92EE59FF4F8EEE8083109291001B
:10018000089548EE50E020E030E095E210C0808114
:10019000833609F090833296E417F507C1F72F5F95
:1001A0003F4FAF01445F5F4F2630310561F0F901E9
:1001B000EE0FFF1FE20FF31FEE0FFF1FEE0FFF1FEB
:1001C000E452FF4FE4CF089528EE30E080E090E065
:1001D00045E20DC0408311823296E217F307D1F752
:1001E00001969F01245F3F4F8630910561F0FC012D
:1001F000EE0FFF1FE80FF91FEE0FFF1FEE0FFF1F9F
:10020000E452FF4FE7CF089560E020E030E0762F22
:100210007F5F35C08485861739F52530310549F073
:10022000808D833619F0681708F4708F2115310519
:1002300039F09081933621F08485891708F4708312
:100240004530510551F09685933621F08485891704
:1002500008F476874115510539F09285933621F0DF
:100260008485891708F472874F5F5F4F3296463056
:10027000510581F62F5F3F4F2630310571F0F901AE
:10028000EE0FFF1FE20FF31FEE0FFF1FEE0FFF1F1A
:10029000E053FF4F40E050E0BDCF633211F06F5F9D
:1002A000B4CF089560E020E030E0762F7F5F41C05A
:1002B0008485861799F52530310561F0818D882375
:1002C00031F0808D833619F0681708F4708F21158E
:1002D000310551F08181882339F09081933621F0E6
:1002E0008485891708F470834530510569F0878546
:1002F000882339F09685933621F08485891708F490
:1003000076874115510551F08385882339F0928510
:10031000933621F08485891708F472874F5F5F4F09
:1003200032964630510521F62F5F3F4F263031057A
:1003300071F0F901EE0FFF1FE20FF31FEE0FFF1F29
:10034000EE0FFF1FE053FF4F40E050E0B1CF6332AC
:1003500011F06F5FA8CF0895CF93DF93A82F10926D
:10036000930010929200C1E0D0E06DC025303105BD
:10037000BCF4C9010196FC01EE0FFF1FE80FF91F45
:10038000EE0FFF1FE40FF51FEE0FFF1FE452FF4FAC
:100390008081871710F4AF5F42C021153105A1F0AD
:1003A000C9010197FC01EE0FFF1FE80FF91FEE0FC7
:1003B000FF1FE40FF51FEE0FFF1FE452FF4F808178
:1003C000871710F4A1502BC045305105ACF4F9014A
:1003D000EE0FFF1FE20FF31FEE0FFF1FE40FF51FDD
:1003E000EE0FFF1FE252FF4F8081871710F46F5FFF
:1003F00016C04115510599F0F901EE0FFF1FE20FEC
:10040000F31FEE0FFF1FE40FF51FEC1BFD0BEE0FAC
:10041000FF1FE452FF4F8081871708F46150E0917D
:100420009200F0919300EB56FF4F8A2F8295807FC8
:10043000860F808380919200909193000196909313
:100440009300809392002A2F30E0462F50E0F9016C
:10045000EE0FFF1FE20FF31FEE0FFF1FE40FF51F5C
:10046000EE0FFF1FE452FF4F7081772309F07ECF1C
:10047000DF91CF9108950F931F93082F162F0E949D
:10048000C100812F82958F7090E0FC01EE0FFF1F5D
:10049000E80FF91FEE0FFF1F1F70E10FF11DEE0FA8
:1004A000FF1FE452FF4F10820E940401802F8295AB
:1004B0008F700F70602F0E94AC011F910F910895F3
:1004C0000F931F93082F162F0E94C100812F829532
:1004D0008F7090E0FC01EE0FFF1FE80FF91FEE0F89
:1004E000FF1F1F70E10FF11DEE0FFF1FE452FF4FC2
:1004F00010820E945201802F82958F700F70602FA2
:100500000E94AC011F910F910895806687B985E81C
:1005100086B9369A349BFECF85B1349A0895C69B2E
:1005200002C0C6980895C69A08951F93CF93DF938B
:100530001092DB00CCE8D0E010E08091DB00880F67
:100540008093DB00812F0E9485029881891720F01B
:100550008091DB00816003C08091DB008E7F8093FF
:10056000DB001F5F2196153041F78091DB0080FF93
:1005700002C0C09A01C0C0988091DB0081FF02C018
:10058000C19A01C0C1988091DB0082FF02C0C29A6B
:1005900001C0C2988091DB0083FF02C0C59A01C0F0
:1005A000C5988091DB0084FF02C0C69A01C0C6983E
:1005B000DF91CF911F9108959FEF94BB15BA97BB20
:1005C00080EF81BB92BB80E49CE997BD86BD8FB56F
:1005D000826A8FBD8EB58A618EBD84E991E19BBD33
:1005E0008ABD8AEF9AE099BD88BD80E585BB8DE61E
:1005F00083BF12BE8FE685BD14BC089589B3807C8D
:1006000029F0803411F081E0089582E0089583BDDF
:100610006CBF08958CE390E06CE370E00E940703E8
:1006200080EA85BB88EB9BE020E931E0F901319756
:10063000F1F70197D9F708950F931F930E94950240
:100640001091DB001E7000E90CC00E949502109111
:10065000DB001E7005BB82E390E062E370E00E9465
:100660000703112391F71091DB00147000E90CC00F
:100670000E9495021091DB00147005BB82E390E0AC
:1006800062E370E00E940703143091F780EF85BBAE
:100690008FEF90E06FEF70E00E9407031F910F91C2
:1006A00008950E941C030E941C0308950F931F933A
:1006B0000E9495021091DB001E7000E60CC00E94A3
:1006C00095021091DB001E7005BB82E390E062E3AF
:1006D00070E00E940703112391F71091DB00147062
:1006E00000E60CC00E9495021091DB00147005BB5F
:1006F00082E390E062E370E00E940703143091F718
:1007000080EF85BB8FEF90E06FEF70E00E940703F2
:100710001F910F91089590916000913051F48031B4
:1007200019F40E9451030BC0813041F50E941C0353
:1007300018C0923059F4803121F40E94560383E0AE
:1007400011C08130D9F40E9451030BC0933069F479
:10075000803119F4909360000895813079F40E94FB
:10076000560384E0809360000895943039F480311A
:1007700029F40E941C0383E0809360000895909107
:100780006000913039F4803151F1813041F50E949F
:10079000560312C0923029F4803109F50E941C03DF
:1007A00013C0933059F4803119F40E9451030CC0E6
:1007B0008130A9F40E941C0382E007C0943079F4D0
:1007C000803131F40E94560381E0809360000895E7
:1007D000813029F40E94510382E0809360000895E3
:1007E000282F90919100A92FB0E0FD01EF59FF4F04
:1007F00080819F5F8217B9F7A0939100AE59BF4FD8
:100800008C91281720F4821B0E94BF030895281B97
:10081000822F0E948B03089590E595BB63BD8CBF2A
:1008200008951F930E9495028091DB008171909141
:10083000DB0039C00E9495021091DB008091DB0043
:100840008F718630C1F0873038F4833079F084308E
:10085000A9F0813031F507C08031E9F08831B1F07D
:100860008C30F9F40EC088E790E002C080EA90E096
:1008700060EF70E014C084EB90E0FACF80EF90E07E
:10088000F7CF80EF90E064EB70E009C080EF90E07C
:1008900060EA70E004C080EF90E068E770E00E94DA
:1008A0000C04812F8171882329F61F9108950E94DD
:1008B000110408951F930E9495028091DB008171BD
:1008C0009091DB004BC00E9495021091DB0080915B
:1008D000DB008F71863019F1873060F48230C9F007
:1008E000833018F48130C1F511C08330A9F0843011
:1008F00099F518C08C30D9F08D3018F4883061F536
:1009000020C0803119F1883139F516C080E090E0BF
:100910000BC084E190E008C08EE190E005C080EA61
:1009200090E002C080EF90E060EF70E013C080EFD5
:1009300090E060EA70E00EC080EF90E06EE170E061
:1009400009C080EF90E064E170E004C080EF90E0C7
:1009500060E070E00E940C04812F8171813109F008
:10096000B2CF0E9411041F9108958091DB008F7116
:10097000863029F1873060F48230C9F0833018F472
:100980008130D1F511C08330B9F08430A9F51AC097
:100990008C30D9F08D3018F4883071F520C080315A
:1009A00029F1883149F516C080E090E002C084E169
:1009B00090E060EF70E017C08EE190E0FACF80EA3F
:1009C00090E0F7CF80EF90E0F4CF80EF90E060EA26
:1009D00070E009C080EF90E06EE170E004C080EF4D
:1009E00090E064E170E00E940C04089580EF90E0D4
:1009F00060E070E00E940C04089542C0863029F146
:100A0000873060F48230C9F0833018F48130C1F54A
:100A100011C08330B9F0843099F51AC08C30D9F008
:100A20008D3018F4883061F520C0803119F188319B
:100A300039F516C080E090E002C084E190E060EFFC
:100A400070E01CC08EE190E0FACF80EA90E0F7CF32
:100A500080EF90E0F4CF80EF90E060EA70E00EC0AD
:100A600080EF90E06EE170E009C080EF90E064E11B
:100A700070E004C080EF90E060E070E00E940C0441
:100A80000E9495022091DB0089B3807C11F490E0F4
:100A900005C0803411F091E001C092E0822F8F7187
:100AA000992309F0ABCF80EF85BB84EC99E09BBD27
:100AB0008ABD80E197E220E931E0F9013197F1F751
:100AC0000197D9F780E197E220E931E0F901319708
:100AD000F1F70197D9F78AEA9FE099BD88BD80E1D7
:100AE00097E220E931E0F9013197F1F70197D9F761
:100AF00080E197E220E931E0F9013197F1F70197C0
:100B0000D9F784E991E19BBD8ABD80E197E220E9B4
:100B100031E0F9013197F1F70197D9F780E197E2D8
:100B200020E931E0F9013197F1F70197D9F70E94F7
:100B30000A03089580912401209124012F70829549
:100B40008F7090E0FC01EE0FFF1FE80FF91FEE0F12
:100B5000FF1FE20FF11DEE0FFF1FE452FF4F83E670
:100B60008083089580919400209194002F70829545
:100B70008F7090E0FC01EE0FFF1FE80FF91FEE0FE2
:100B8000FF1FE20FF11DEE0FFF1FE452FF4F81E048
:100B900081830895DF92EF92FF920F931F938091CC
:100BA0006000843011F40E941C030E949502909111
:100BB000DB0091718091DB0000E510EF60EAD62E3A
:100BC0005EE1E52E44E1F42E43C00E94950290912F
:100BD000DB0091718091DB008F71863031F18730BD
:100BE00060F48230D1F0833018F4813089F511C07F
:100BF0008330B9F0843061F51CC08C30E9F08D3061
:100C000018F4883029F51EC08031F9F0883101F5DB
:100C100016C005BB13BD1CBE1BC005BB13BDFCBE6F
:100C200017C005BB13BDECBE13C005BB13BDDCBEB6
:100C30000FC005BB13BD0BC005BBD3BC08C005BBB3
:100C4000E3BC05C005BBF3BC02C005BB13BC1CBFA5
:100C5000913109F0BACF1F910F91FF90EF90DF9083
:100C60000895809194000E94F00330919400909137
:100C70009100A92FB0E0FD01EF59FF4F80819F5FE8
:100C80008317B9F7A0939100AE59BF4F8C91809311
:100C90002401089580912401809394008091940010
:100CA000209194002F7082958F7090E0FC01EE0FE0
:100CB000FF1FE80FF91FEE0FFF1FE20FF11DEE0FF0
:100CC000FF1FE452FF4F81E081830E941104809155
:100CD00094000E94F0033091940090919100A92F0C
:100CE000B0E0FD01EF59FF4F80819F5F8317B9F797
:100CF000A0939100AE59BF4F8C91809324018091B5
:100D000024018E3E29F40E94CA0515BA8099FECFAF
:100D100008959091DB002091DB0089B3807C29F05D
:100D2000803411F081E001C082E09171913109F4C9
:100D30004CC0813009F04EC0822F8F71863049F14E
:100D4000873070F48230E9F0833020F4813009F08C
:100D50009EC014C08330D1F0843009F098C01CC00C
:100D60008C30E9F08D3020F4883009F090C021C03B
:100D7000803121F1883109F08AC016C080E090E00E
:100D800002C084E190E060EF70E01CC08EE190E072
:100D9000FACF80EA90E0F7CF80EF90E0F4CF80EFD9
:100DA00090E060EA70E00EC080EF90E06EE170E0ED
:100DB00009C080EF90E064E170E004C080EF90E053
:100DC00060E070E00E940C040895813019F40E94E4
:100DD0004A06089515BA80E29EE420E931E0F9015F
:100DE0003197F1F70197D9F789B3807C09F048C0B2
:100DF00080912401209124012F7082958F7090E0C2
:100E0000FC01EE0FFF1FE80FF91FEE0FFF1FE20FAF
:100E1000F11DEE0FFF1FE452FF4F83E680833091F8
:100E2000240190919100A92FB0E0FD01EF59FF4FEF
:100E300080819F5F8317B9F7A0939100AE59BF4F90
:100E40006C91809194000E943B020E945B0015C04F
:100E5000A92FB0E0FD01EF59FF4F80819F5F8317FD
:100E6000B9F7A0939100AE59BF4FEC9180919400D7
:100E700060E00E9460020E94A2000E943106089574
:100E80000E94FD043091240190919100E1CF0895DA
:100E90004F925F926F927F928F929F92AF92BF928A
:100EA000CF92DF92EF92FF920F931F93DF93CF9336
:100EB000CDB7DEB72A970FB6F894DEBF0FBECDBF11
:100EC000FE01319685E0DF011D928A95E9F7DE018A
:100ED0001696E6E8F0E085E001900D928150E1F78A
:100EE00080E985BB88EC83BD8CBFDD2476E0A72E2E
:100EF000B12CAC0EBD1E2E010894411C511C6BE0A0
:100F0000662E712C6C0E7D1E50E9852E51E0952EBB
:100F100022C0802F8A190E948502982FF8018081B3
:100F2000981708F49083D7018C91891708F49C9343
:100F30000F5F1F4F0894E11CF11C0615170549F7B8
:100F400084EF91E0F4013197F1F70197D9F7D39449
:100F5000B4E6DB1619F072018501DBCFEE24FF2425
:100F600046E0A42EB12CAC0EBD1E6E010894C11C2F
:100F7000D11CF501EE0DFF1D2081870104571F4F85
:100F8000F601EE0DFF1D808190E0821B910962E069
:100F900070E00E944408260FF80120830894E11CA9
:100FA000F11CF5E0EF16F10421F715BA2A960FB6F9
:100FB000F894DEBF0FBECDBFCF91DF911F910F918F
:100FC000FF90EF90DF90CF90BF90AF909F908F9069
:100FD0007F906F905F904F90089580E585BB80E48F
:100FE00083BD8CBF80E593EC20E931E0F9013197B6
:100FF000F1F70197D9F780E883BD8CBF80E593ECCA
:1010000020E931E0F9013197F1F70197D9F780EC48
:1010100083BD8CBF80E593EC20E931E0F901319785
:10102000F1F70197D9F78FEF83BD8CBF80E593EC83
:1010300020E931E0F9013197F1F70197D9F715BAB5
:10104000089580EF81BB8FE082BB1ABA80EC8BBB26
:101050000E94DC02C79A80E29EE420E931E0F901B7
:101060003197F1F70197D9F7C7980E9448078099FF
:10107000FECF10929400109224010E94E4000E947E
:1010800095020E94B504FBCF97FB092E07260AD0D4
:1010900077FD04D00CD006D000201AF4709561952D
:1010A0007F4F0895F6F7909581959F4F0895AA1B5D
:1010B000BB1B51E107C0AA1FBB1FA617B70710F043
:1010C000A61BB70B881F991F5A95A9F78095909575
:0A10D000BC01CD010895F894FFCF94
:1010DA0001001020304050514131211101021222E9
:1010EA0032425253433323130304142434445455D1
:0C10FA004535251505EEFFFFFFFFFF0048
:00000001FF
