:100000000C942A000C9434000C9434000C943400AA
:100010000C9434000C9434000C9434000C94340090
:100020000C9434000C9434000C9434000C94340080
:100030000C9434000C9434000C9434000C94340070
:100040000C9434000C9434000C9434000C94340060
:100050000C94340011241FBECFE5D4E0DEBFCDBF29
:100060000E9436000C945D000C94000011BA8FEFD2
:1000700082BB84BB15BA28EC30E055E54AEA80998A
:100080000CC088E893E1F9013197F1F70197D9F7AE
:1000900001C055BB809BFDCFF2CF81990CC088E891
:1000A00093E1F9013197F1F70197D9F701C045BB09
:0E00B000819BFDCFE4CF15BAE2CFF894FFCFCD
:00000001FF
