:100000000C942A000C9447000C9447000C94470071
:100010000C9447000C9447000C9447000C94470044
:100020000C9447000C9447000C9447000C94F10189
:100030000C9447000C9447000C9447000C94470024
:100040000C9447000C9447000C9447000C94470014
:100050000C94470011241FBECFE5D4E0DEBFCDBF16
:1000600010E0A0E6B0E0EAE7F5E002C005900D92EE
:10007000AE3BB107D9F710E0AEEBB0E001C01D9286
:10008000A13CB107E1F70E9428020C94BB020C943A
:10009000000087E689B910BC86E880BD88E98AB986
:1000A00085B78F7485BF789408955D9BFECF8CB91A
:1000B00008955F9BFECF8CB10895FC0104C05D9B49
:1000C000FECF8CB9319680818823C9F708958FEFD0
:1000D00088BB88EC90E020E931E0F9013197F1F735
:1000E0000197D9F794E398BB80E388BBE0E4FCE98F
:1000F0003197F1F798BB88BB20EA3FE0F9013197CF
:10010000F1F798BB88BBC9010197F1F784E288BB7E
:1001100080E288BBC9010197F1F70895382F307F3D
:10012000232F246028BB38BB90E024E0880F991F60
:100130002A95E1F7282F246028BB88BB80E49FE143
:10014000FC013197F1F70197F1F708958FEF87BB25
:1001500018BA0E94670084E288BB80E288BB54E83A
:1001600058BB40E848BB20E43FE1C9010197F1F7E3
:10017000C9010197F1F794E098BB18BA84EC88BBE9
:1001800080EC88BBF9013197F1F7F9013197F1F76C
:1001900098BB18BA84E688BB80E688BBF901319722
:1001A000F1F7F9013197F1F758BB48BB98BB18BA82
:1001B000C9010197F1F7C9010197F1F70895982F47
:1001C000907F292F256028BB916098BB8295807F06
:1001D000982F956098BB816088BB80E49FE1FC010B
:1001E0003197F1F70197F1F70895CF93DF93EC0181
:1001F00002C00E94DF0089918823D9F7DF91CF9157
:100200000895CF92DF92EF92FF920F931F937C019C
:100210006AE070E00E94A702D62EC72E862F972F85
:100220006AE070E00E94A702162F072F862F972FF3
:100230006AE070E00E94A702CB016AE070E00E94D1
:10024000A702805D0E94DF00812F902F6AE070E09E
:100250000E94A702805D0E94DF008D2D9C2D6AE028
:1002600070E00E94A702805D0E94DF00C7016AE083
:1002700070E00E94A702805D0E94DF001F910F9135
:10028000FF90EF90DF90CF900895E0E6F0E004C09B
:100290005D9BFECF8CB9319680818823C9F75D9B29
:1002A000FECF8DE08CB980E197E220E931E0F901E1
:1002B0003197F1F70197D9F7E3E6F0E004C05D9BD1
:1002C000FECF8CB9319680818823C9F75D9BFECF24
:1002D0008DE08CB980E197E220E931E0F9013197B6
:1002E000F1F70197D9F7EDE6F0E004C05D9BFECF92
:1002F0008CB9319680818823C9F75D9BFECF8DE054
:100300008CB980E197E220E931E0F9013197F1F70A
:100310000197D9F70895E0E6F0E004C05D9BFECFB9
:100320008CB9319680818823C9F75D9BFECF8DE023
:100330008CB980E197E220E931E0F9013197F1F7DA
:100340000197D9F7E3E6F0E004C05D9BFECF8CB9DE
:10035000319680818823C9F75D9BFECF8DE08CB9F3
:1003600080E197E220E931E0F9013197F1F7019757
:10037000D9F7EFE7F0E004C05D9BFECF8CB9319672
:1003800080818823C9F75D9BFECF82E28CB9E8E8C3
:10039000F0E004C05D9BFECF8CB93196808188234C
:1003A000C9F75D9BFECF82E28CB95D9BFECF8DE0ED
:1003B0008CB9E3E9F0E004C05D9BFECF8CB93196C7
:1003C00080818823C9F75D9BFECF8AE18CB980E2EA
:1003D0009EE420E931E0F9013197F1F70197D9F76F
:1003E00008951F920F920FB60F9211248F938CB124
:1003F0008093BF008091BF00813621F48091BE00C0
:10040000882381F08091BF00833721F48091BE0062
:10041000813041F08091BF008B3651F48091BE0055
:10042000823031F48091BE008F5F8093BE000AC09D
:100430008091BE00833021F48091BF008093C00082
:100440001092BE008F910F900FBE0F901F901895C5
:10045000EF92FF920F931F93CF93DF9387E689B9B3
:1004600010BC86E880BD88E98AB985B78F7485BFDE
:1004700078948FEF8ABB1BBA78940E94A60094E010
:1004800098BB18BA84EC88BB80EC88BB20E43FE1C1
:10049000F9013197F1F7F9013197F1F798BB18BAE3
:1004A00084E188BB80E188BBC9010197F1F7C901EC
:1004B0000197F1F781EB90E00E94F50080E197E26F
:1004C00020E931E0F9013197F1F70197D9F784E09C
:1004D00088BB18BA84E188BB80E188BB80E49FE1D7
:1004E000FC013197F1F70197F1F70E94450144E8CB
:1004F000E42E30E8F32E04E110E1C0E4DFE1E8BAD5
:10050000F8BA08BB18BBCE010197F1F7CE010197ED
:10051000F1F78091BF000E94DF008091C0000E942F
:10052000DF008091C000823361F0833318F481339F
:1005300031F705C0833339F0843309F706C0DC9AFC
:10054000DECFDC98DCCFDD9ADACFDD98D8CFAA1BDE
:10055000BB1B51E107C0AA1FBB1FA617B70710F0AE
:10056000A61BB70B881F991F5A95A9F780959095E0
:0A057000BC01CD010895F894FFCFFF
:10057A0061740061742B636D67663D310061742B91
:10058A00636E6D693D312C322C302C302C30006179
:10059A00742B636D67733D0039393236333636361C
:1005AA00373200496E74727564657220616C6572C7
:1005BA0074202E2E47534D205761746368646F6709
:0E05CA000068656C6C6F20646561722E2E00F7
:00000001FF
