:100000000C942A000C9434000C9434000C943400AA
:100010000C9434000C9434000C9434000C94340090
:100020000C9434000C9434000C9434000C94340080
:100030000C9434000C9434000C9434000C94340070
:100040000C9434000C9434000C9434000C94340060
:100050000C94340011241FBECFE5D4E0DEBFCDBF29
:100060000E9436000C9459000C94000080EF81BB74
:100070008FE082BB8FEF87BB80E29EE497BD86BD99
:100080008FB582688FBD8EB58A618EBD819907C09C
:100090008AB59BB50A969BBD8ABD819BFECF82998E
:1000A000F5CF8AB59BB50A979BBD8ABD829BFECFD3
:0600B000EDCFF894FFCF34
:00000001FF
