:100000000C94A7010C94C4010C94C4010C94C40179
:100010000C94C4010C94C4010C94C4010C94C4014C
:100020000C94C4010C944C0D0C94C4010C94C401A8
:100030000C94C4010C94C4010C94C4010C94C4012C
:100040000C94C4010C94C4010C94C4010C94C4011C
:100050000C94C40100010800060400014500008260
:100060000000400020485454502F312E30203430AE
:100070003120556E617574686F72697A65640D0A16
:10008000436F6E74656E742D547970653A20746593
:1000900078742F68746D6C0D0A0D0A3C68313E341B
:1000A000303120556E617574686F72697A65643C91
:1000B0002F68313E003C68313E323030204F4B3C9F
:1000C0002F68313E006C6F676963627269676164B3
:1000D000652E636F6D002F6B756B726F6B6F6F2F7B
:1000E00074646174612E706870006C6F676963621C
:1000F0007269676164652E636F6D000A3C2F7072D0
:10010000653E3C62723E3C68723E000A636865630D
:100110006B20726573756C743A203C61206872655F
:10012000663D687474703A2F2F74757867726170C9
:10013000686963732E6F72672F6367692D62696EDA
:100140002F75706C643E687474703A2F2F747578D4
:1001500067726170686963732E6F72672F63676976
:100160002D62696E2F75706C643C2F613E000A4EE3
:10017000756D626572207375636365737366756C04
:1001800020646174612075706C6F61647320746F9A
:10019000207765623A20004E756D626572206F6649
:1001A00020646174612075706C6F61647320737476
:1001B00061727465642062792070696E673A20000C
:1001C00077616974696E6720666F7220444E5320B0
:1001D000616E737765722E0A0077616974696E6764
:1001E00020666F7220475720495020746F20616E3F
:1001F00073776572206172702E0A003C68323E7718
:10020000656220636C69656E7420737461747573C4
:100210003C2F68323E0A3C7072653E0A00485454D6
:10022000502F312E3020323030204F4B0D0A436F8B
:100230006E74656E742D547970653A2074657874A7
:100240002F68746D6C0D0A507261676D613A206E93
:100250006F2D63616368650D0A0D0A000D0A436F17
:100260006E74656E742D547970653A206170706C8F
:1002700069636174696F6E2F782D7777772D666F5C
:10028000726D2D75726C656E636F6465640D0A0D19
:100290000A00436F6E74656E742D4C656E677468EA
:1002A0003A20000D0A557365722D4167656E743AE8
:1002B000207467722F312E310D0A416363657074AB
:1002C0003A202A2F2A0D0A436F6E6E656374696F98
:1002D0006E3A20636C6F73650D0A000D0A002048AA
:1002E0005454502F312E310D0A486F73743A200048
:1002F000504F535420000D0A557365722D416765A8
:100300006E743A207467722F312E300D0A41636388
:100310006570743A20746578742F68746D6C0D0A7A
:10032000436F6E6E656374696F6E3A20636C6F73B2
:10033000650D0A0D0A0020485454502F312E310DFE
:100340000A486F73743A2000474554200000112476
:100350001FBECFE5D4E0DEBFCDBF10E0A0E6B0E029
:10036000E8E9F6E202C005900D92A639B107D9F787
:1003700013E0A6E9B0E001C01D92AC37B107E1F788
:100380000E949E0F0C944A130C940000C498962F60
:100390009F71982B9FB9779BFECF1FB8779BFECF9D
:1003A00067FF03C01FB8779BFECFC49A8FB1089533
:1003B000C4986F71682B6FB9779BFECF4FB9779B4D
:1003C000FECFC49A0895AC01FB01C4988AE38FB9AB
:1003D000779BFECF9A01DF0107C01FB8779BFECF46
:1003E000215030408FB18D9321153105B1F7E40FC5
:1003F000F51F1082C49A08959C01FB01C4988AE7F6
:100400008FB9779BFECF07C080818FB9779BFECFD6
:1004100021503040319621153105B1F7C49A089525
:10042000482F282F30E0207630708091AB0090E08C
:1004300028173907D9F0C4988FEB8FB9779BFECF77
:1004400083E08FB9779BFECFC49AC4988FE98FB9A8
:10045000779BFECF85E0359527958A95E1F72FB9F3
:10046000779BFECFC49A40764093AB0008951F93CC
:10047000182F0E94100280E0612F0E94C6011F9178
:1004800008950F931F93182F062F0E941002C498EF
:100490001F7110641FB9779BFECF0FB9779BFECFFA
:1004A000C49A1F910F910895682F84ED0E94410214
:1004B00082ED61E00E94410280E58A95F1F78AEEC3
:1004C0000E94370280FDFBCF82ED60E00E94410276
:1004D00089ED0E94370290E008950F931F93982FA3
:1004E000162F072F84ED692F0E94410286ED612FA0
:1004F0000E94410287ED602F0E94410210E503C077
:10050000812F8A95F1F78AEE0E94370280FDF8CF9D
:100510001F910F910895682F677085E70E9441022F
:100520000895CF93DF93EC01BC9AC49A87B3806A95
:1005300087BBBE98C598C79881E58DB9709AC49855
:100540008FEF8FB9779BFECF8FEF8FB9779BFECF61
:10055000C49A8DEC8A95F1F71092AD001092AC0020
:1005600088E060E00E94410289E060E00E94410270
:100570008CE060E00E9441028DE060E00E94410258
:100580008AE06EEF0E9441028BE069E10E94410225
:1005900084E06FEF0E94410285E069E10E94410220
:1005A00086E06FEF0E94410287E06FE10E94410206
:1005B00088E360EB0E94410288E26FE30E944102FF
:1005C00089E260E30E94410280E369EF0E944102F8
:1005D00081E367EF0E94410280EC6DE00E944102DE
:1005E00081EC60E00E944102C49882E88FB9779B59
:1005F000FECF82E38FB9779BFECFC49A86EC62E18F
:100600000E94410287EC6CE00E94410284EC62E1AE
:100610000E9441028AEC6CED0E9441028BEC65E085
:100620000E94410284EE68810E94410285EE698148
:100630000E94410282EE6A810E94410283EE6B8138
:100640000E94410280EE6C810E94410281EE6D8128
:100650000E94410280E160E071E00E946D028FE142
:100660000E941002C4988BE98FB9779BFECF80EC73
:100670008FB9779BFECFC49AC4988FE98FB9779BC7
:10068000FECF84E08FB9779BFECFC49ADF91CF91E4
:10069000089582E70E943702089581E10E94540282
:1006A00020E0892B09F021E0822F0895DF92EF925C
:1006B000FF920F931F93CF93DF93EC018B013FE9E0
:1006C000D32E20E8F22E9FEBE92E15C08CE10E947C
:1006D000370281FF10C0C498DFB8779BFECFFFB808
:1006E000779BFECFC49AC498EFB8779BFECFFFB834
:1006F000779BFECFC49A80E06FE10E94C60183FD24
:10070000E5CF82E06FEF0E94410283E069E10E9441
:100710004102CE018150682F86E00E9441029E0175
:100720002150364E87E0632F0E944102C4988AE729
:100730008FB9779BFECF1FB8779BFECFC49AC49822
:100740008AE78FB9779BFECF08C0F80180818FB907
:10075000779BFECF21970F5F1F4F2097B1F7C49A69
:10076000C4988FE98FB9779BFECF88E08FB9779BCC
:10077000FECFC49ADF91CF911F910F91FF90EF9020
:10078000DF90089589E30E943702811181E0089586
:100790008F929F92AF92BF92CF92DF92EF92FF9291
:1007A0000F931F93CF93DF935C014B0189E30E946A
:1007B0003702882319F4C0E0D0E076C06091AC0025
:1007C0001091AD0080E00E94410281E0612F0E9403
:1007D00041028AE360E00E94C601182F8AE360E0CC
:1007E0000E94C601382F20E0E12EFF24E22AF32ADE
:1007F000F092AD00E092AC008AE360E00E94C60196
:10080000C82E8AE360E00E94C601D82E8AE360E029
:100810000E94C601082F10E08AE360E00E94C60132
:10082000382F20E0202B312B27FD03C0C0E0D0E083
:1008300011C0CC2DD0E09D2D80E0C82BD92BC50157
:10084000019724978C179D0708F4EC01CE01B401A1
:100850000E94E301DE2C8CE06E2D0E9441028DE0AF
:100860006F2D0E94410287010150104089E10F3F26
:10087000180738F08CE06EEF0E9441028DE069E1CC
:1008800007C0DA948CE06D2D0E9441028DE0612F4B
:100890000E944102C4988EE98FB9779BFECF80E415
:1008A0008FB9779BFECFC49ACE01DF91CF911F9174
:1008B0000F91FF90EF90DF90CF90BF90AF909F90FF
:1008C0008F900895CF92DF92EF92FF920F931F9334
:1008D000CF93DF936C01413081F4685070407B010D
:1008E00000E010E0685F7F4F21E130E040E050E041
:1008F000E20EF31E041F151F15C0423021F0EE2436
:10090000FF2487010FC0685070407B0100E010E0B9
:10091000685F7F4F86E090E0A0E0B0E0E80EF91E4F
:100920000A1F1B1FF601EB0116C0808190E0A0E0BA
:10093000B0E0BA2FA92F982F8827218130E040E01E
:1009400050E0822B932BA42BB52BE80EF91E0A1F27
:100950001B1F32962297C230D10538F7FB01EE7F7C
:10096000EC0DFD1D60FF15C0808190E0A0E0B0E0BF
:10097000BA2FA92F982F882708C02FEF3FEF40E00C
:1009800050E0E222F32204231523E80EF91E0A1F89
:100990001B1FC801AA27BB270097A105B10569F74E
:1009A000970120953095C901DF91CF911F910F914B
:1009B000FF90EF90DF90CF900895CF93DF93EC01FD
:1009C0005093A6004093940020E030E0F901E053FA
:1009D000FF4FDB01A20FB31F8C9180832F5F3F4F2E
:1009E0002430310599F720E030E0F901E653FF4F5C
:1009F000DE01A20FB31F8C9180832F5F3F4F263003
:100A0000310599F7DF91CF910895DC0120E030E0C6
:100A1000FB01E20FF31F5A969C915A978081981719
:100A200011F080E008952F5F3F4F1196243031057B
:100A300079F781E00895FC0169327105B0F0848591
:100A4000883099F48585863081F4DF019696E0ED53
:100A5000F0E09C918081981741F41196319680E0E6
:100A6000E43DF807B1F781E0089580E00895FC01C6
:100A70006A327105D0F084858830B9F48585882381
:100A8000A1F48685853489F4DF01E0EDF0E05E961F
:100A90009C915E978081981741F41196319680E081
:100AA000E43DF807A1F781E0089580E00895FC0196
:100AB000AAECB0E0868180838D918683319680E0B8
:100AC000A03DB807B9F708950F931F938C01FC015F
:100AD000108E118E80E4848B158A868BC8010E9649
:100AE00064E170E040E00E946204F801908F818F21
:100AF0001F910F910895AC01FC01A0EDB0E0828D33
:100B0000868F8D91828F319680E0A43DB807B9F72A
:100B1000CA010E9464050895FC01B99694E08081A1
:100B2000680F711D84816483442311F0808301C0A8
:100B3000108291503197992319F0672F7727EFCFC3
:100B400008950F931F938C01FC0194A182A184A3AB
:100B500092A395A183A185A393A3C8010E948C05AC
:100B6000F80112AA13AA80E586A71F910F91089594
:100B7000CF93DF93AC01EC012AEC30E0FC01D9010A
:100B8000868180838D918683319680E0A03DB80771
:100B9000B9F7FA01148A82E0858B8E8988A3F9015E
:100BA00081919F018E8B2196F0E0203D3F07A9F7B0
:100BB000FA017C96A0EDB0E0808182878D918193CF
:100BC00080E0A43DB807C1F78AE290E0BA010E9434
:100BD0005603DF91CF9108950F931F93CF93DF9327
:100BE000EC018B01FC01AAECB0E0868180838D9141
:100BF0008683319680E0A03DB807B9F7CE010E9408
:100C00007B051AA28CA1883F18F08DA18F5F8DA360
:100C10008CA1885F8CA3C801BE010E945603DF919E
:100C2000CF911F910F910895DF92EF92FF920F9352
:100C30001F93CF93DF93EC017B01D22E132FFC0186
:100C4000AAECB0E0868180838D918683319680E026
:100C5000A03DB807B9F7042F4D3D08F00CED188AF8
:100C6000045E098BCE010E947B058AA18CA38BA117
:100C70008DA31AA3DBA21EA204510FA3085018A62D
:100C800019A6DE019A9620E030E007C0F701E20FD6
:100C9000F31F80818D932F5F3F4F2017B8F310E033
:100CA000005F1F4FCE014A96B80141E00E946204E6
:100CB00098A789A7C8014A96BE010E945603DF91F2
:100CC000CF911F910F91FF90EF90DF900895CF93F8
:100CD000DF93EC01FC01AAECB0E0868180838D916A
:100CE0008683319680E0A03DB807B9F7188A8CE278
:100CF000898BCE010E947B0582E18FA7CE0161E046
:100D000070E040E00E94A1051EA21FA28091950004
:100D100088A719A68D5F8093950082E08EAB84E052
:100D20008FAB95E098AF19AE80E68EA798AB88E7B9
:100D300089ABCE014A9660E270E042E00E94620414
:100D40009AAB8BAB8AE390E0BE010E945603DF9121
:100D5000CF910895FC01908980E02189422F50E0D5
:100D6000482B592B26A5822F82958F7090E0880FF3
:100D7000991F880F991F481B590B4451504057FF2A
:100D800002C040E050E0CA0108956A5C7F4FDC0178
:100D9000A60FB71F6653704003C08D936F5F7F4FE0
:100DA000FA014F5F5F4F84918823B9F7CB01089513
:100DB000DA016A5C7F4FFC01E60FF71F6653704053
:100DC000922F03C08D91819391509923D9F7CB0134
:100DD000820F911D0895CF93DF93EC01FC01AAECE3
:100DE000B0E0868180838D918683319680E0A03D3E
:100DF000B807B9F7842F80618FA7443029F06115B7
:100E0000710511F461E070E0CE0141E00E94A1059E
:100E1000188A88E2898BCE010E947B0584E088AB2A
:100E200019AACE014A966CE170E042E00E94620489
:100E30009AAB8BAB86E390E0BE010E945603DF9134
:100E4000CF910895EF92FF920F931F938C017B0136
:100E5000CB018896F801908B818BC8010E946405B4
:100E6000F80112AA13AA8CE190E0E80EF91EC8015D
:100E70004A96B70142E00E946204F80192AB83AB4C
:100E8000C7014A96B8010E9456031F910F91FF9027
:100E9000EF900895EF92FF920F931F938C017B01C7
:100EA0006091A7007091A80040E00E94EB0689E1E4
:100EB000F80187A7C801B7010E9422071F910F916F
:100EC000FF90EF900895DC01FA0105C084918D93A5
:100ED00031966150704061157105C1F70895FF9218
:100EE0000F931F93CF93DF93EC01F62E072FBA01D8
:100EF000122F932FAE019E01A0E0B0E0FD01EC5354
:100F0000FF4F8081F9018083FD01E653FF4F80810F
:100F1000F901868311962F5F3F4FA630B10571F717
:100F200088E08C871D86DE01ECE5F0E084911E965A
:100F30008C931E973196119680E0E536F807B1F74D
:100F4000188A81E18F8BA0E0B0E0FB01EA0FFB1F64
:100F50008081FA01868FFD01E053FF4F8081FA0105
:100F6000828F11964F5F5F4FA430B10571F79CA33C
:100F70001DA30AA3FBA21EA218A619A6DF91CF915A
:100F80001F910F91FF900895EF92FF920F931F937F
:100F90007C01062F045EFC01018B0E946405045154
:100FA000F70107A3085010E0005F1F4FC7014A96E2
:100FB000B80141E00E946204F70190A781A7C8012F
:100FC0004A96B7010E9456031F910F91FF90EF9030
:100FD0000895AF92BF92DF92EF92FF920F931F930B
:100FE000CF93DF93EC015B01D42EA801B9019701E7
:100FF0000E946F076D2D6D3D08F06CEDDE019A9635
:1010000020E030E007C0F501E20FF31F80818D93EF
:101010002F5F3F4F2617B8F3CE010E94C407DF9120
:10102000CF911F910F91FF90EF90DF90BF90AF9005
:101030000895CF93DF93EC01AC012AEC30E0FC0182
:10104000D9019FEF90838D918683319680E0A03DFA
:10105000B807C1F788E08C8786E08D87DE01E4E57C
:10106000F0E084911E968C931E973196119680E045
:10107000EC35F807B1F7F90181919F01FA01868BF0
:1010800010A24F5F5F4FF0E0203D3F07A1F7DE0168
:101090005C9620E030E0FB01E20FF31F80811A969E
:1010A0008C931A97F901E053FF4F80818D932F5F46
:1010B0003F4F2430310579F780919F0088608093FD
:1010C0009F008AE290E0BE010E945603DF91CF911B
:1010D000089580919F008695809581700895CF93A3
:1010E000DF93EC01E9E8F0E0DC015C969C915C9711
:1010F0008081981711F080E010C01196319680E041
:10110000ED38F80791F7E4ECF0E08E8981932196B1
:1011100080E0EA3CF807C9F781E0DF91CF910895BC
:1011200080919F0081FF03C0846080939F00089599
:10113000AC0181E080939F0020E030E0F901E757A7
:10114000FF4FDA01A20FB31F8C9180832F5F3F4FB7
:101150002430310599F70895AC0120E030E0F90121
:10116000E255FF4FDA01A20FB31F8C9180832F5FEE
:101170003F4F2430310599F70895FF920F931F9345
:10118000CF93DF93EC01F62E142F022FAC01DC017C
:1011900020E030E0F901EC53FF4F80818C93F9019E
:1011A000E653FF4F808116968C9316972F5F3F4F23
:1011B00011962630310571F788E08C871D86DE0197
:1011C000ECE5F0E084911E968C931E973196119673
:1011D00080E0E536F807B1F78CE2898B86E08F8BEB
:1011E00020E030E0F901E255FF4F8081FA01868F5F
:1011F000F901E053FF4F8081FA01828F2F5F3F4F4B
:101200004F5F5F4F2430310569F7CE010E946405BE
:101210001CA30DA38BE08AA3FBA2FE01B69680E07F
:1012200011928F5F8830E1F78091950088A78D5FDC
:101230008093950080E68EA792E09FA783E088AB1D
:1012400019AA1AAA1BAA1CAA1DAA9EAB84E08FABDE
:1012500098AF86E289AFCE014A9660E270E042E044
:101260000E9462049AAB8BAB8AE390E0BE010E94BD
:101270005603DF91CF911F910F91FF9008959093A6
:10128000B3008093B2007093B5006093B4005093A4
:10129000A2004093A30081E08093A0008091A10070
:1012A0008F5F8093A100883010F01092A100809190
:1012B000A10008959093BD008093BC007093BF007F
:1012C0006093BE005093C1004093C0001092A900EB
:1012D0003093B7002093B6008EE89DE09093B30062
:1012E0008093B2008DE291E19093B5008093B400B9
:1012F0001092A20080E58093A30081E08093A0007B
:101300008091A1008F5F8093A100883010F010922F
:10131000A1008091A1008093AA0008950F931F93CC
:101320009093BD008093BC007093C1006093C00097
:101330005093B9004093B8003093BB002093BA009B
:1013400021E02093A9001093B7000093B6008EE827
:101350009DE09093B3008093B2008DE291E1909371
:10136000B5008093B4001092A20080E58093A300A2
:101370002093A0008091A1008F5F8093A10088300E
:1013800010F01092A1008091A1008093AA001F91FB
:101390000F9108959093C3008093C2000895CF9257
:1013A000DF92EF92FF920F931F93CF93DF937C0115
:1013B0006B0161157105E1F580919F00857079F0F1
:1013C0008091910090919200892B49F40E944D03E5
:1013D000882329F0C70169E870E00E94190880910C
:1013E00091009091920001969093920080939100C9
:1013F0008091A000813009F099C180919F0081FF08
:1014000095C182E08093A000809193008F5F8093CC
:1014100093008F716091A1006295660F607E682BCA
:10142000C7014091A2002091A3000E94BD087EC187
:101430000E941B05882361F1D70155968C9181305C
:1014400019F4C7010E94B80580919F0083FF6EC107
:10145000F7018589823009F069C1E701E9E8F0E028
:10146000D7015C969C915C978081981709F05EC1CA
:101470001196319680E0ED38F80799F7E4ECF0E04A
:101480008E898193219690E0EA3CF907C9F75AC109
:10149000C701B6010E943705882309F447C1D70167
:1014A00057969C915797913091F492968C918830F1
:1014B00071F4E091C200F091C300309719F0C701B8
:1014C0004A960995C701B6010E94EC052FC1B6E303
:1014D000CB16D10418F4963009F028C1F70194A175
:1014E0009B3009F0CEC0F092A500E092A400D70195
:1014F000EEEAF0E05A969C915A978081981709F08D
:1015000015C11196319680E0E23BF80799F71EC1AC
:10151000E091B200F091B300309709F4A7C0D70171
:1015200095968C9182958695877063E040E050E0B7
:1015300020E030E009959AC0F701908980E0218988
:10154000022F10E0082B192B26A5822F82958F7071
:1015500090E0880F991F880F991F081B190B0451E1
:10156000104017FF02C000E010E0E8018091A000E9
:101570008230B1F531FF24C034FF22C0C70160E0E2
:1015800070E040E00E94EB0688E1D7019F968C93C3
:10159000E091B400F091B500309719F460E070E08C
:1015A00008C0D70193968C9182958695877009958E
:1015B000BC0183E08093A000C7010E942207B6C04F
:1015C00081E08093A000F70187A584FF03C060E05D
:1015D00070E003C0B8016F5F7F4FC70144E091C066
:1015E0008330A1F50115110589F184E08093A000F5
:1015F000E091B200F091B300309741F1D7019E968F
:101600008C9182958F70482F50E0440F551F440FE6
:10161000551FC60108974E5D5F4F8417950708F464
:10162000AC01C801840F951FC816D90610F09801A7
:1016300003C09601241B350BD70195968C9182959A
:101640008695877060E00995882359F48091A00001
:10165000853009F46BC0F70187A580FF0BC00F5FD1
:101660001F4FC701B80149E00E94EB0685E0809357
:10167000A0005CC00115110509F45AC0C701B801EA
:101680003FC08091A600981709F050C0D7019596E9
:101690009C91959780919400981709F047C09F9668
:1016A0008C9181FF04C0C7010E9467063FC084FF80
:1016B0003DC0F701908980E02189422F50E0482BFE
:1016C000592B26A5822F82958F7090E0880F991F45
:1016D000880F991F481B590B4451504057FF02C0B7
:1016E00040E050E05093A8004093A700452B61F4E0
:1016F000D7019F968C9180FF19C0C70160E070E010
:1017000040E00E94EB0612C0F70186A582958F701B
:10171000C82FD0E0CC0FDD1FCC0FDD1FA29688EFC5
:101720009FEFC80ED91ECC16DD0610F4C0E0D0E045
:10173000CE01DF91CF911F910F91FF90EF90DF903D
:10174000CF90089582E080939F00F0CFD7019F96BD
:101750008C91382F82FDDCCEEFCECF93DF93DC016E
:10176000EB01722F632F822F932F9C01F90150E020
:1017700016C08081981771F431968081882371F4A6
:1017800011968C918D3331F4872F962F9C01F9019E
:1017900051E004C0872F962F9C01F90111969C916E
:1017A000992339F0903229F09A3019F0552309F332
:1017B00004C0513011F030E018C06A2F50E04150A1
:1017C000504002C0299311963A2F361B2C912223A8
:1017D00059F0203249F02A3039F0263229F0832F8F
:1017E00090E08417950774F31882832FDF91CF91CF
:1017F0000895982F80538A3068F08153863010F412
:10180000865F0895892F8154863010F080E0089516
:10181000892F87530895CF93DF93FC01EC0137C0E4
:101820008B3211F480E231C0853279F5DF011196F7
:101830009181FD013196392F30533A3070F0892F64
:101840008156863010F4375208C0892F8154863073
:1018500010F030E002C0392F375311962C91922F9F
:1018600090539A3070F0822F8156863010F4975240
:1018700008C0822F8154863010F090E002C0922F71
:101880009753832F8295807F892B8993319680810E
:10189000882331F61882DF91CF910895382FFB010C
:1018A000282F2F70205D2183205390E08F7090703F
:1018B0000A9714F0295A2183832F82958F70805DB7
:1018C000808380538A3010F0895A80831282089571
:1018D00080919E00089580919D00089584ED90E090
:1018E0000895EF92FF921F93CF93DF93EC017B015A
:1018F00010929E0010929D0010919C001F5F10930B
:101900009C00612F70E0706E4DE850E025E330E000
:101910000E946F071BA781E08CA7FE01BD9683E0A4
:1019200011928F5F8A30E1F781E08FA73CE090E071
:101930008DE00EC02E3231F4FE01E30FF11D92A7AF
:10194000382F90E0FE01E80FF11D22A79F5F8F5F07
:10195000F7010894E11CF11C2491222359F7FE01A0
:10196000E30FF11D915092A7FE01E80FF11D12A6A1
:101970008F5FFE01E80FF11D12A68F5FFE01E80FD9
:10198000F11D91E092A7682F6F5FFE01E60FF11D38
:1019900012A66F5FFE01E60FF11D92A76F5F8950DF
:1019A0008AA7CE010E94C407DF91CF911F91FF90BB
:1019B000EF900895CF93DF93EC016634710508F43E
:1019C0004EC08BA1853309F04AC08CA1803E09F03E
:1019D00046C09DA180919C00981709F040C08BA53E
:1019E0008917E9F58DA58F78803811F081E022C044
:1019F0009AA5292F245FFE01E20FF11D82A5807CAC
:101A000059F02E5F10C02F5FFE01E20FF11D82A57D
:101A1000882321F42F5F07C061537040822F90E02C
:101A20008617970780F3FE01E20FF11D83A984302A
:101A300021F082E080939D0012C0265FA22FB0E0CB
:101A40009A96AC0FBD1FE4EDF0E08D91819380E09C
:101A5000E83DF807D1F781E080939E0001C080E067
:101A6000DF91CF91089520E030E006C0F901E35105
:101A7000FF4F86AB2F5F3F4FF901E35EFD4F84912F
:101A80008823A1F7C901089510929B0085E083BFC8
:101A900012BE81E089BF08951F920F920FB60F9278
:101AA00011248F9380919B008F5F80939B00809186
:101AB0009B008D3338F010929B00809197008F5FD0
:101AC000809397008F910F900FBE0F901F901895E5
:101AD000AC0180919800882379F420E030E0F9018E
:101AE000E858FC4FDA01A20FB31F8C9180832F5F5F
:101AF0003F4F2430310599F70895882331F48091C0
:101B00009A008F5F80939A00DE9A089580919800E2
:101B1000882319F481E0809398000895EF92FF9252
:101B20000F931F93CF93DF9379019091AA008917A8
:101B300059F0E091B600F091B70084E060E070E009
:101B400040E050E0099536C06623A1F52D303105FF
:101B500088F1C091B600D091B700209759F100915B
:101B6000A4001091A500475F5F4F400F511F80E612
:101B700090E0BA0143E050E00E94DB12F80166A554
:101B8000009759F462956F7070E0660F771F660FCB
:101B9000771F6E5D7F4F80E00AC062956F7070E0C6
:101BA000660F771F660F771F6E5D7F4F81E0A7017D
:101BB000FE01099580E0DF91CF911F910F91FF9079
:101BC000EF900895BF92CF92DF92EF92FF920F9322
:101BD0001F93CF93DF937C01B42EC22ED02EEB0146
:101BE00000E010E017C0B701610F711D888190E01F
:101BF0004D2D50E00E94E91201C0192FF701E10FAD
:101C0000F11D8081912F9F5F8823B9F7C082192F22
:101C10000F5F21960B1538F31150E10EF11CF701FF
:101C20001082DF91CF911F910F91FF90EF90DF9085
:101C3000CF90BF900895EF92FF921F93CF93DF93C1
:101C40007C01EB0180E090E0F701E80FF91F1082C2
:101C5000019684309105C1F720E030E010E017C014
:101C60002115310531F4842F90E0C0970A9708F4CC
:101C70009E014E3259F41882C9010E94B612F70132
:101C8000E10FF11D80831F5F20E030E02196488145
:101C9000442311F0143020F31882133011F081E046
:101CA00006C0C9010E94B612F701838380E0DF916C
:101CB000CF911F91FF90EF900895EF92FF920F93B5
:101CC0001F93CF93DF938B01EC01219695E2E92ED0
:101CD0001AC080E2F81619F48BE2F82E06C08F2D98
:101CE00090E00E942213892B21F0F801F1928F01DC
:101CF00009C0F801E1928F018F2DBF010E944E0CA7
:101D00000E5F1F4F2196FA902196FF2011F7F801E0
:101D10001082DF91CF911F910F91FF90EF90089566
:101D2000CF93DF93DA010D900020E9F71197A41B00
:101D30006A5C7F4FEC01C60FD71F66537040FA01F3
:101D4000B0E09A012A0F3B1F02C081918993E217EC
:101D5000F307D9F79B012A0F3B1FC901DF91CF91F0
:101D60000895CF92DF92EF92FF920F931F93DF932C
:101D7000CF9300D000D00F92CDB7DEB76C01EE2428
:101D8000FF2407C0F701E351FF4F86AB0894E11C25
:101D9000F11CF701E35EFD4F8491882399F786E3F8
:101DA00090E0E80EF91ED601AE0DBF1D8AEC9FEF44
:101DB000E80EF91E8BEF91E004C02D930894E11C0E
:101DC000F11CFC01019624912223B9F780919F0018
:101DD00081FD0EC086E390E0E80EF91ED601AE0D3F
:101DE000BF1D8AEC9FEFE80EF91E89ED91E017C048
:101DF0008091960097012A5C3F4F813031F0D601E7
:101E0000A20FB31F87E991E01EC0D601A20FB31F36
:101E100080EC91E00EC02D930894E11CF11CFC01B4
:101E2000019624912223B9F77AC02D930894E11CDE
:101E3000F11CFC01019624912223B9F770C02D9367
:101E40000894E11CF11CFC01019624912223B9F7AE
:101E50008091990090E08E010F5F1F4FB8014AE01A
:101E600050E00E94E912C601B701A8010E94900E3D
:101E70007C0186E390E0E80EF91ED601AE0DBF1D91
:101E80008AEC9FEFE80EF91E8EE691E004C02D93D8
:101E90000894E11CF11CFC01019624912223B9F75E
:101EA00080919A0090E08E010F5F1F4FB8014AE0C9
:101EB00050E00E94E912C601B701A8010E94900EED
:101EC0007C0186E390E0E80EF91ED601AE0DBF1D41
:101ED0008AEC9FEFE80EF91E8BE091E004C02D9391
:101EE0000894E11CF11CFC01019624912223B9F70E
:101EF00086E390E0E80EF91ED601AE0DBF1D8AEC18
:101F00009FEFE80EF91E8BEF90E004C02D9308942C
:101F1000E11CF11CFC01019624912223B9F7C701B1
:101F20000F900F900F900F900F90CF91DF911F9116
:101F30000F91FF90EF90DF90CF9008952F923F92F6
:101F40004F925F926F927F928F929F92AF92BF92C9
:101F5000CF92DF92EF92FF920F931F93CF93DF9375
:101F600010E0812F8A95F1F78FE790E00E949102AF
:101F700082E00E948B021A95F1F710929B0085E097
:101F800083BF12BE81E089BF789484E166E774E084
:101F90000E946D0211BA8FEF82BBD69ADE9A109220
:101FA000A60080E58093940020E030E0F901E05342
:101FB000FF4FD901AB57BF4F8C9180832F5F3F4FAD
:101FC0002430310599F720E030E0F901E653FF4F66
:101FD000D901A158BF4F8C9180832F5F3F4F26308E
:101FE000310599F781E080939F0089E890E00196A0
:101FF00020E08D389207D9F788E69DE09093C300E2
:102000008093C200E8ED2E2EE0E03E2E76ED472EC6
:1020100070E0572E65EC862E60E0962E5DE7652E0B
:102020005DE0752E4EE8A42E4DE0B42E3DE2C32EA9
:1020300031E1D32E20E9E22E21E0F22E8AE892E06F
:102040006DEE70E00E94C803EC018DEE90E0BE01E1
:102050000E94CF098C01209709F09BC0809912C083
:10206000DE9888E893E1F7013197F1F70197D9F706
:10207000809BFECFDE9A80919800882319F481E03E
:102080008093980080919F0081FFD8CF8091960027
:10209000882361F41092970021E0209396008DEE42
:1020A00090E06AEE70E00E94710CC8CF8130B1F40C
:1020B00080919E00882391F082E08093960020E03A
:1020C00030E0F901E255FF4FD901AC52BF4F8C917E
:1020D00080832F5F3F4F2430310599F78091960020
:1020E000823041F0809197008D3308F4A7CF109291
:1020F0009600A4CF109198001130F1F5DE9810925F
:10210000970080939800809199008F5F8093990049
:1021100088ED90E064E670E00E94D4125092BD0019
:102120004092BC003092BF002092BE009092C1004D
:102130008092C0001092A9007092B7006092B60021
:10214000B092B300A092B200D092B500C092B40099
:102150001092A20020E52093A3001093A00080918C
:10216000A1008F5F8093A100883010F01092A10031
:102170008091A1008093AA00809197008D3308F48C
:102180005DCF80919800823009F058CF109298006E
:1021900055CF009731F48DEE90E0BE010E94DA0C2D
:1021A0004DCFBC0163517F4F87E790E044E050E0A2
:1021B0000E94DB120097F1F060E070E006C0FB01C6
:1021C000E351FF4F86AB6F5F7F4FFB01E35EFD4F37
:1021D00084918823A1F7DB01AD5DBE4F85EB90E0D4
:1021E00003C02D936F5F7F4FFC0101962491222342
:1021F000C1F72EC00F501F4F8CE790E0B80142E0AE
:1022000050E00E94DB12009719F060E070E01AC005
:1022100080E090E005C0FC01E351FF4F26AB019642
:10222000FC01E35EFD4F24912223A9F78DEE90E09F
:102230000E94B10EBC010CC0FB01E351FF4F86AB05
:102240006F5F7F4FFB01EB59FF4F84918823A1F70C
:102250008DEE90E00E944A07F1CECF92DF92EF928E
:10226000FF920F931F93DF93CF9300D000D00F9274
:10227000CDB7DEB79091AA00891719F040E050E081
:1022800066C18091A9000091A4001091A500882347
:1022900009F067C0D801D69660E070E003C08D9366
:1022A0006F5F7F4FFB01E85BFC4F84918823B9F798
:1022B0006A5C7F4FD801A60FB71F665370408091AC
:1022C000BC009091BD009C0103C08D936F5F7F4F58
:1022D000F9012F5F3F4F84918823B9F74091BE00E9
:1022E0005091BF00C8010E94900EAC014A5C5F4F44
:1022F000D801A40FB51F4653504086E393E003C0B6
:102300002D934F5F5F4FFC01019624912223C1F76B
:102310004A5C5F4FD801A40FB51F465350408091CF
:10232000C0009091C1009C0103C08D934F5F5F4F2F
:10233000F9012F5F3F4F84918823B9F74A5C5F4FC3
:10234000D801A40FB51F4653504086EF92E003C05A
:102350002D934F5F5F4FFC01019624912223C1F71B
:10236000F6C0D801D696EE24FF2404C08D930894BD
:10237000E11CF11CF701E051FD4F84918823B1F776
:1023800086E390E0E80EF91ED801AE0DBF1D8AEC81
:102390009FEFE80EF91E8091BC009091BD009C015A
:1023A00004C08D930894E11CF11CF9012F5F3F4F8D
:1023B00084918823B1F786E390E0E80EF91ED801F6
:1023C000AE0DBF1D8AEC9FEFE80EF91E8EED92E078
:1023D00004C02D930894E11CF11CFC01019624918A
:1023E0002223B9F786E390E0E80EF91ED801AE0D7E
:1023F000BF1D8AEC9FEFE80EF91E8091C0009091FE
:10240000C1009C0104C08D930894E11CF11CF901EA
:102410002F5F3F4F84918823B1F74091B8005091CE
:10242000B9004115510569F186E390E0E80EF91E07
:10243000D801AE0DBF1D8AEC9FEFE80EF91E8BEDA3
:1024400092E004C02D930894E11CF11CFC0101965C
:1024500024912223B9F786E390E0E80EF91ED80113
:10246000AE0DBF1D8AEC9FEFE80EF91ECA0104C035
:102470002D930894E11CF11CFC0101962491222368
:10248000B9F786E390E0E80EF91ED801AE0DBF1D46
:102490008AEC9FEFE80EF91E83EA92E004C02D93C8
:1024A0000894E11CF11CFC01019624912223B9F748
:1024B00086E390E0E80EF91ED801AE0DBF1D8AEC50
:1024C0009FEFE80EF91E82E992E004C02D93089474
:1024D000E11CF11CFC01019624912223B9F7E09143
:1024E000BA00F091BB00DF010D900020E9F71197D1
:1024F000CD018E1B9F0B8E010F5F1F4FB8014AE06D
:1025000050E00E94E912C090A400D090A500C6013E
:10251000B701A8010E94900EBC016A5C7F4FD601F2
:10252000A60FB71F665370408CE592E003C02D9351
:102530006F5F7F4FFC01019624912223C1F74091E8
:10254000BA005091BB00C6010E94900EAC01CA01B6
:102550000F900F900F900F900F90CF91DF911F91E0
:102560000F91FF90EF90DF90CF900895FC018827A6
:102570009927E89421912032E9F3293010F02E3088
:10258000C8F32B3241F02D3239F4689404C00E9414
:102590000A13820F911D219120532A30C0F31EF49B
:1025A000909581959F4F0895FB01DC0101900D925C
:1025B0000020E1F70895FB01DC014150504030F06C
:1025C0008D910190801919F40020B9F7881B990B9F
:1025D0000895FB019F01E8944230C4F04532B4F401
:1025E0004A3029F497FB1EF4909581959F4F642FF4
:1025F00077270E943613805D8A330CF0895D8193C2
:10260000CB010097A1F716F45DE251931082C90146
:102610000C9412137AE0979F902D879F802D910D37
:1026200011240895DC01FC01672F71917723E1F7F4
:10263000329704C07C916D9370836291AE17BF078F
:10264000C8F30895911106C080538A5010F0865C3B
:1026500006C0089599278827089585FDFBCF8062DD
:102660009111F8CF81568A51E0F70895AA1BBB1B40
:1026700051E107C0AA1FBB1FA617B70710F0A61B82
:10268000B70B881F991F5A95A9F780959095BC01A3
:08269000CD010895F894FFCF7D
:10269800323030003F613D6F6E26623D6F666626C0
:1026A800743D313131340047455420002F20005407
:1026B8005558100029C0A8015CC0A80101080808E5
:0626C80008010001500AA8
:00000001FF
