:100000000C946D000C948A000C948A000C948A0065
:100010000C948A000C948A000C948A000C948A0038
:100020000C948A000C948A000C948A000C948A0028
:100030000C948A000C948A000C948A000C948A0018
:100040000C948A000C948A000C948A000C948A0008
:100050000C948A00485454502F312E3020323030C6
:10006000204F4B0D0A436F6E74656E742D5479707A
:10007000653A20746578742F68746D6C0D0A0D0AEA
:100080003C703E41696D73204F4B2C206974207782
:100090006F726B733C2F703E00485454502F312EBA
:1000A0003020323030204F4B0D0A436F6E74656E36
:1000B000742D547970653A20746578742F68746D66
:1000C0006C0D0A0D0A3C68313E41696D7320323077
:1000D00030204F4B3C2F68313E0011241FBECFE52E
:1000E000D4E0DEBFCDBF10E0A0E6B0E0EEE0FEE081
:1000F00002C005900D92A837B107D9F712E0A8E722
:10010000B0E001C01D92AC34B107E1F70E941106C6
:100110000C9405070C940000C498962F9F71982B9F
:100120009FB9779BFECF1FB8779BFECF67FF03C0B9
:100130001FB8779BFECFC49A8FB10895C4986F7192
:10014000682B6FB9779BFECF4FB9779BFECFC49AD0
:100150000895AC01FB01C4988AE38FB9779BFECF69
:100160009A01DF0107C01FB8779BFECF21503040B6
:100170008FB18D9321153105B1F7E40FF51F108272
:10018000C49A08959C01FB01C4988AE78FB9779BB4
:10019000FECF07C080818FB9779BFECF21503040C2
:1001A000319621153105B1F7C49A0895482F282FAB
:1001B00030E02076307080917C0090E0281739077D
:1001C000D9F0C4988FEB8FB9779BFECF83E08FB9BE
:1001D000779BFECFC49AC4988FE98FB9779BFECFE7
:1001E00085E0359527958A95E1F72FB9779BFECF66
:1001F000C49A407640937C0008951F93182F0E9464
:10020000D60080E0612F0E948C001F9108950F930B
:100210001F93182F062F0E94D600C4981F711064D8
:100220001FB9779BFECF0FB9779BFECFC49A1F9162
:100230000F910895682F84ED0E94070182ED61E01F
:100240000E94070180E58A95F1F78AEE0E94FD0081
:1002500080FDFBCF82ED60E00E94070189ED0E94E6
:10026000FD0090E008950F931F93982F162F072FEE
:1002700084ED692F0E94070186ED612F0E9407011E
:1002800087ED602F0E94070110E503C0812F8A953A
:10029000F1F78AEE0E94FD0080FDF8CF1F910F91CB
:1002A0000895682F677085E70E9407010895CF932E
:1002B000DF93EC01BC9AC49A87B3806A87BBBE986F
:1002C000C598C79881E58DB9709AC4988FEF8FB99A
:1002D000779BFECF8FEF8FB9779BFECFC49A8DECC3
:1002E0008A95F1F710927E0010927D0088E060E020
:1002F0000E94070189E060E00E9407018CE060E055
:100300000E9407018DE060E00E9407018AE06EEF25
:100310000E9407018BE069E10E94070184E06FEF12
:100320000E94070185E069E10E94070186E06FEF06
:100330000E94070187E06FE10E94070188E360EBFC
:100340000E94070188E26FE30E94070189E260E3EF
:100350000E94070180E369EF0E94070181E367EFD4
:100360000E94070180EC6DE00E94070181EC60E0D3
:100370000E940701C49882E88FB9779BFECF82E381
:100380008FB9779BFECFC49A86EC62E10E94070189
:1003900087EC6CE00E94070184EC62E10E94070197
:1003A0008AEC6CED0E9407018BEC65E00E9407016E
:1003B00084EE68810E94070185EE69810E94070131
:1003C00082EE6A810E94070183EE6B810E94070121
:1003D00080EE6C810E94070181EE6D810E94070111
:1003E00080E160E071E00E9433018FE10E94D6005D
:1003F000C4988BE98FB9779BFECF80EC8FB9779B40
:10040000FECFC49AC4988FE98FB9779BFECF84E062
:100410008FB9779BFECFC49ADF91CF91089582E781
:100420000E94FD00089581E10E941A0120E0892BBD
:1004300009F021E0822F0895DF92EF92FF920F934F
:100440001F93CF93DF93EC018B013FE9D32E20E87C
:10045000F22E9FEBE92E15C08CE10E94FD0081FF7A
:1004600010C0C498DFB8779BFECFFFB8779BFECF54
:10047000C49AC498EFB8779BFECFFFB8779BFECFA6
:10048000C49A80E06FE10E948C0083FDE5CF82E09A
:100490006FEF0E94070183E069E10E940701CE012E
:1004A0008150682F86E00E9407019E012150364E40
:1004B00087E0632F0E940701C4988AE78FB9779B72
:1004C000FECF1FB8779BFECFC49AC4988AE78FB936
:1004D000779BFECF08C0F80180818FB9779BFECF54
:1004E00021970F5F1F4F2097B1F7C49AC4988FE9E7
:1004F0008FB9779BFECF88E08FB9779BFECFC49AE8
:10050000DF91CF911F910F91FF90EF90DF900895B1
:1005100089E30E94FD00811181E008958F929F92EE
:10052000AF92BF92CF92DF92EF92FF920F931F9301
:10053000CF93DF935C014B0189E30E94FD00882388
:1005400019F4C0E0D0E076C060917D0010917E008B
:1005500080E00E94070181E0612F0E9407018AE389
:1005600060E00E948C00182F8AE360E00E948C00FB
:10057000382F20E0E12EFF24E22AF32AF0927E00B9
:10058000E0927D008AE360E00E948C00C82E8AE33E
:1005900060E00E948C00D82E8AE360E00E948C000C
:1005A000082F10E08AE360E00E948C00382F20E0E2
:1005B000202B312B27FD03C0C0E0D0E011C0CC2D93
:1005C000D0E09D2D80E0C82BD92BC5010197249741
:1005D0008C179D0708F4EC01CE01B4010E94A9001C
:1005E000DE2C8CE06E2D0E9407018DE06F2D0E94A5
:1005F000070187010150104089E10F3F180738F0CB
:100600008CE06EEF0E9407018DE069E107C0DA948B
:100610008CE06D2D0E9407018DE0612F0E94070183
:10062000C4988EE98FB9779BFECF80E48FB9779B12
:10063000FECFC49ACE01DF91CF911F910F91FF9011
:10064000EF90DF90CF90BF90AF909F908F900895E4
:10065000CF92DF92EF92FF920F931F93CF93DF938E
:100660006C01413081F4685070407B0100E010E083
:10067000685F7F4F21E130E040E050E0E20EF31E82
:10068000041F151F15C0423021F0EE24FF248701FE
:100690000FC0685070407B0100E010E0685F7F4F42
:1006A00086E090E0A0E0B0E0E80EF91E0A1F1B1FF4
:1006B000F601EB0116C0808190E0A0E0B0E0BA2F17
:1006C000A92F982F8827218130E040E050E0822B2D
:1006D000932BA42BB52BE80EF91E0A1F1B1F329675
:1006E0002297C230D10538F7FB01EE7FEC0DFD1DDE
:1006F00060FF15C0808190E0A0E0B0E0BA2FA92F84
:10070000982F882708C02FEF3FEF40E050E0E2220B
:10071000F32204231523E80EF91E0A1F1B1FC8012C
:10072000AA27BB270097A105B10569F79701209576
:100730003095C901DF91CF911F910F91FF90EF90FC
:10074000DF90CF900895CF93DF93EC014093750035
:1007500020E030E0F901EB57FF4FDB01A20FB31FA0
:100760008C9180832F5F3F4F2430310599F720E033
:1007700030E0F901E158FF4FDE01A20FB31F8C9169
:1007800080832F5F3F4F2630310599F7DF91CF915E
:100790000895FC0169327105B0F08485883099F4C0
:1007A0008585863081F4DF019696E5E8F0E09C913E
:1007B0008081981741F41196319680E0E938F80766
:1007C000B1F781E0089580E00895FC016A32710577
:1007D000D0F084858830B9F485858823A1F4868596
:1007E000853489F4DF01E5E8F0E05E969C915E9740
:1007F0008081981741F41196319680E0E938F80726
:10080000A1F781E0089580E00895FC01AFE7B0E032
:10081000868180838D918683319680E0A538B807E4
:10082000B9F708950F931F938C01FC01108E118E60
:1008300080E4848B158A868BC8010E9664E170E093
:1008400040E00E942803F801908F818F1F910F9143
:100850000895AC01FC01A5E8B0E0828D868F8D91F2
:10086000828F319680E0A938B807B9F7CA010E9493
:1008700012040895FC0182A184A312A283A185A37E
:1008800013A28091750083A3DF01999694E08C9167
:10089000680F711D14968C91149714966C9314978D
:1008A000222311F08C9301C01C929150119799232F
:1008B00019F0672F7727EBCF222349F416A217A24E
:1008C0008091760080A711A68E5F8093760012AA91
:1008D00013AA442351F082E086AB84E087AB85E025
:1008E00080AF80E881AF80E601C080E586A70895EB
:1008F000CF93DF93AC01EC012FE730E0FC01D9018D
:10090000868180838D918683319680E0A538B807F3
:10091000B9F7FA01148A82E0858B8E8988A3F901E0
:1009200081919F018E8B2196F0E025383F07A9F732
:10093000FA017C96A5E8B0E0808182878D91819351
:1009400080E0A938B807C1F78AE290E0BA010E94B6
:100950001C02DF91CF9108950F931F93CF93DF93E4
:10096000EC018B01FC01AFE7B0E0868180838D91C3
:100970008683319680E0A538B807B9F7CE010E948A
:1009800029041AA28CA1883F18F08DA18F5F8DA336
:100990008CA1885F8CA3C801BE010E941C02DF915C
:1009A000CF911F910F910895DF92EF92FF920F93D5
:1009B0001F93CF93DF93EC017B01D22E132FFC0109
:1009C000AFE7B0E0868180838D918683319680E0A9
:1009D000A538B807B9F7042F4D3D08F00CED188A7B
:1009E000045E098BCE010E9429048AA18CA38BA1ED
:1009F0008DA31AA3DBA21EA204510FA3085018A6B0
:100A000019A6DE019A9620E030E007C0F701E20F58
:100A1000F31F80818D932F5F3F4F2017B8F310E0B5
:100A2000005F1F4FCE014A96B80141E00E942803A3
:100A300098A789A7C8014A96BE010E941C02DF91AF
:100A4000CF911F910F91FF90EF90DF900895CF937A
:100A5000DF93EC01FC01AFE7B0E0868180838D91EC
:100A60008683319680E0A538B807B9F7188A8CE2FA
:100A7000898BCE010E94290482E18FA7CE0161E01B
:100A800070E041E020E00E943A04CE014A9660E224
:100A900070E042E00E9428039AAB8BAB8AE390E0BF
:100AA000BE010E941C02DF91CF91089580917800D1
:100AB00090917900892B19F420E030E006C0209154
:100AC0007A0030917B002E5D3F4FC9010895FC01F3
:100AD000908980E0218930E0282B392B86A58295EA
:100AE0008F7090E0880F991F880F991F90937B005B
:100AF00080937A0024513040281B390B30937900C1
:100B0000209378001216130624F0109279001092A8
:100B1000780008956A5C7F4FDC01A60FB71F66530B
:100B2000704003C08D936F5F7F4FFA014F5F5F4F3F
:100B300084918823B9F7CB010895FA016A5C7F4F4D
:100B4000DC01A60FB71F6653704004C08D936F5F22
:100B50007F4F319680818823C9F7CB010895CF93C9
:100B6000DF93EC01FC01AFE7B0E0868180838D91DB
:100B70008683319680E0A538B807B9F780E18FA762
:100B800060917800709179006115710521F4CE01B2
:100B900061E070E001C0CE0140E021E00E943A0433
:100BA000188A88E2898BCE010E942904CE014A96D8
:100BB0006CE170E042E00E9428039AAB8BAB86E3C5
:100BC00090E0BE010E941C02DF91CF910895EF9248
:100BD000FF920F931F938C017B0189E1F80187A796
:100BE000CB018896908B818BC8010E941204F8017A
:100BF00012AA13AA8CE190E0E80EF91EC8014A96E9
:100C0000B70142E00E942803F80192AB83ABC70111
:100C10004A96B8010E941C021F910F91FF90EF901D
:100C200008951F93CF93DF9312E3812F8A95F1F7F5
:100C3000B99AC19A8BE690E00E94570182E00E9427
:100C40005101812F8A95F1F784E166E774E00E94F3
:100C500033011A95F1F7C19880E58093750020E083
:100C600030E0F901EB57FF4FD901AF58BF4F8C91DE
:100C700080832F5F3F4F2430310599F720E030E02B
:100C8000F901E158FF4FD901A559BF4F8C918083DD
:100C90002F5F3F4F2630310599F711E082EC91E04C
:100CA00069E870E00E948E02EC010097B9F389E8D0
:100CB00090E0BE010E94C903882329F089E890E0F2
:100CC0000E947804EBCF89E890E0BE010E94E50322
:100CD000882321F3112319F0C19A10E002C0C198B2
:100CE00011E08091A000813051F48091AB008830F8
:100CF000A9F689E890E0BE010E94AC04CFCF86300F
:100D000009F05EC08091AD00882341F68091AE006D
:100D1000803521F68091B80081FF05C089E890E018
:100D20000E942705BBCF84FFB9CF89E890E00E94DD
:100D300067058091780090917900892B39F0609156
:100D40007A0070917B006E5D7F4F49F48091B8000E
:100D500080FFA4CF89E890E00E94AF059FCF67573E
:100D60007F4F80E690E044E050E00E94F706009755
:100D700019F4C0E0D0E014C0C0E0D0E005C0FE012E
:100D8000E757FF4F86AB2196FE01E756FF4F849150
:100D90008823A9F70BC0FE01E757FF4F86AB2196CA
:100DA000FE01EC5AFF4F84918823A9F789E890E06F
:100DB0000E94AF0589E890E0BE010E94E7056ECF72
:100DC000813109F06BCF9091B0008091B3008437EE
:100DD00009F064CF9D3009F061CF89E890E065E6C5
:100DE00070E046E020EB34E00E94D40457CFFB01D2
:100DF000DC014150504030F08D910190801919F480
:0E0E00000020B9F7881B990B0895F894FFCFD6
:100E0E00474554200068656C6C6F005455581000AF
:080E1E0024C0A8015C500A0089
:00000001FF
