:100000000C942A000C9447000C9447000C94470071
:100010000C9447000C9447000C9447000C94470044
:100020000C9447000C9447000C9447000C94470034
:100030000C9447000C9447000C9447000C94470024
:100040000C9447000C9447000C9447000C94470014
:100050000C94470011241FBECFE5D4E0DEBFCDBF16
:1000600010E0A0E6B0E0E8EFF2E002C005900D92EB
:10007000A23CB107D9F710E0A2ECB0E001C01D929C
:10008000A53CB107E1F70E9441010C947A010C9460
:10009000000087E689B910BC86E880BD88E98AB986
:1000A00085B78F7485BF789408955D9BFECF8CB91A
:1000B00008955F9BFECF8CB10895FC0104C05D9B49
:1000C000FECF8CB9319680818823C9F70895E0E688
:1000D000F0E004C05D9BFECF8CB93196808188230F
:1000E000C9F75D9BFECF8DE08CB980E29EE420E9EC
:1000F00031E0F9013197F1F70197D9F7E3E6F0E044
:1001000004C05D9BFECF8CB9319680818823C9F7EE
:100110005D9BFECF8DE08CB980E29EE420E931E06A
:10012000F9013197F1F70197D9F7EDE6F0E004C056
:100130005D9BFECF8CB9319680818823C9F75D9B8A
:10014000FECF8DE08CB980E29EE420E931E0F90138
:100150003197F1F70197D9F7EDE6F0E004C05D9B28
:10016000FECF8CB9319680818823C9F75D9BFECF85
:100170008DE08CB980E29EE420E931E0F90131970D
:10018000F1F70197D9F70895EFE7F0E004C05D9B20
:10019000FECF8CB9319680818823C9F780E197E240
:1001A00020E931E0F9013197F1F70197D9F7E4E857
:1001B000F0E004C05D9BFECF8CB93196808188232E
:1001C000C9F780E197E220E931E0F9013197F1F7D1
:1001D0000197D9F7E0E9F0E004C05D9BFECF8CB950
:1001E000319680818823C9F780E197E220E931E0E8
:1001F000F9013197F1F70197D9F75D9BFECF82E2C4
:100200008CB9E9E9F0E004C05D9BFECF8CB9319672
:1002100080818823C9F75D9BFECF82E28CB980E1A3
:1002200097E220E931E0F9013197F1F70197D9F729
:100230005D9BFECF8DE08CB980E197E220E931E053
:10024000F9013197F1F70197D9F75D9BFECF8AE06D
:100250008CB9E4EAF0E004C05D9BFECF8CB9319626
:1002600080818823C9F75D9BFECF8AE18CB980E24B
:100270009EE420E931E0F9013197F1F70197D9F7D0
:10028000089587E689B910BC86E880BD88E98AB9F7
:1002900085B78F7485BF78948FEF8ABB1BBA84BBF8
:1002A00015BA8BBB80E49CE920E931E0F901319774
:1002B000F1F70197D9F780E49CE920E931E0F901F1
:1002C0003197F1F70197D9F780E49CE920E931E013
:1002D000F9013197F1F70197D9F780E49CE920E91A
:1002E00031E0F9013197F1F70197D9F71BBA0E9474
:0802F000C400FFCFF894FFCF1A
:1002F80061740061742B636D67663D310061742B16
:10030800636E6D693D322C322C302C302C300061FC
:10031800740D0A0061742B636D67663D310D0A0028
:1003280061742B636D67733D00393832363534316B
:1003380037313800496E74727564657220616C6576
:100348007274202E2E47534D205761746368646F72
:0203580067003C
:00000001FF
