:100000000C942A000C943F000C943F000C943F0089
:100010000C943F000C943F000C943F000C943F0064
:100020000C943F000C943F000C943F000C943F0054
:100030000C943F000C943F000C943F000C943F0044
:100040000C943F000C943F000C943F000C943F0034
:100050000C943F0011241FBECFE5D4E0DEBFCDBF1E
:1000600010E0A0E6B0E0E0EFF2E002C005900D92F3
:10007000AA37B107D9F70E941F010C9476010C949E
:1000800000008FEF85BB88EC90E020E931E0F901BA
:100090003197F1F70197D9F794E395BB80E385BBDE
:1000A000E0E4FCE93197F1F795BB85BB20EA3FE03E
:1000B000F9013197F1F795BB85BBC9010197F1F7BC
:1000C00084E285BB80E285BBC9010197F1F7089501
:1000D000382F307F232F246025BB35BB90E024E0F0
:1000E000880F991F2A95E1F7282F246025BB85BB2F
:1000F00080E49FE1FC013197F1F70197F1F7089552
:100100008FEF84BB15BA0E94410084E285BB80E278
:1001100085BB54E855BB40E845BB20E43FE1C9013D
:100120000197F1F7C9010197F1F794E095BB15BA72
:1001300084EC85BB80EC85BBF9013197F1F7F901BF
:100140003197F1F795BB15BA84E685BB80E685BB90
:10015000F9013197F1F7F9013197F1F755BB45BB3B
:1001600095BB15BAC9010197F1F7C9010197F1F7DC
:100170000895982F907F292F256025BB916095BB0E
:100180008295807F982F956095BB816085BB80E4C8
:100190009FE1FC013197F1F70197F1F70895CF93B3
:1001A000DF93EC0102C00E94B90089918823D9F73E
:1001B000DF91CF910895CF92DF92EF92FF920F934C
:1001C0001F937C016AE070E00E946201D62EC72E68
:1001D000862F972F6AE070E00E946201162F072F8A
:1001E000862F972F6AE070E00E946201CB016AE0DF
:1001F00070E00E946201805D0E94B900812F902F03
:100200006AE070E00E946201805D0E94B9008D2D5D
:100210009C2D6AE070E00E946201805D0E94B9003E
:10022000C7016AE070E00E946201805D0E94B9002F
:100230001F910F91FF90EF90DF90CF900895FF9264
:100240000F931F930E94800034E0F32EF5BA15BA85
:1002500084E185BB80E185BB00E41FE1C801019713
:10026000F1F7C8010197F1F780E690E00E94CF0016
:1002700084EC85BB80EC85BBF5BA15BAC801019743
:10028000F1F7C8010197F1F781E790E00E94CF00F4
:10029000B4E1A0E174E860E820E43FE140E951E026
:1002A000B5BBA5BB75BB65BBC9010197F1F7C9011A
:1002B0000197F1F784EC99E0FA013197F1F7019792
:1002C000D9F7EECFAA1BBB1B51E107C0AA1FBB1F6A
:1002D000A617B70710F0A61BB70B881F991F5A95D2
:1002E000A9F780959095BC01CD010895F894FFCFB2
:1002F00041496D7320496E746572616374697665F6
:0A030000004C43442044656D6F007B
:00000001FF
