:100000000C94922E0C94AF2E0C94AF2E0C94AF2E19
:100010000C94AF2E0C94AF2E0C94AF2E0C94B12EEA
:100020000C94AF2E0C94AF2E0C94AF2E0C94AF2EDC
:100030000C94AF2E0C94AF2E0C94AF2E0C94AF2ECC
:100040000C94AF2E0C94AF2E0C94AF2E0C94AF2EBC
:100050000C94AF2E665D58566274879CAFB1B2AAFD
:10006000A8A38E6F4228334E69767E8C9EB1C0B7AE
:10007000987D665B5D5A5A5F69859CA9B5AEA7A657
:10008000A19C87603326395C77818791A4B6BDA98E
:100090008A6B5A5858585E697791A3AEB0ABA1A04D
:1000A0009B8F7A52312E486C83898F9AADB9B39B5E
:1000B0007B6057595E61646E859AB0B9AAA29A9521
:1000C000988F70462D33577B8C8F93A0B0B7AB8F32
:1000D0006D57525A626467758EA9B8B2A197969807
:1000E000938157332E47708A8F8D98A9B6B39B772B
:1000F0005950586164646C80A1B9B5A7928E9899E3
:100100008C693D2D3E66898E888DA2B5B6A3805F31
:10011000515A64656264779AB2B6AA9591979B9793
:1001200075422B355E848E87899CB5BCAA89645143
:1001300057626561617191B4BCB0998E9DA49F7D39
:1001400045273159838F858497B6C5B38E6651593B
:100150006869615B6B8FB0BCB59E959DA1A382461B
:10016000262B53818E868595B3C5B6936950576605
:100170006A62596686A8BBB79D959DA5A78346234D
:100180002B547E8B848191B2C4B592685058696DAE
:1001900063596487A9B8B49B94A2AAA67D42262C71
:1001A000577E88818395B3C5B28B61505C6E726453
:1001B000596588ABBBAF9696A0AAA06D3B24376566
:1001C000838A7E849AB7BEA1795755677776655C36
:1001D0006F90ACB6A19298A5AE9057322B4D798B0B
:1001E000827887A5BCB490644C5774877D68647B23
:1001F0009CB3AC968C94A7A177452C3F6B8C8F7DDC
:100200007C8FAFB9A0765550657B837D747E90A0BE
:10021000AA9C91929C9D8155343C618596888087EB
:10022000A0B3A5815A4C5A72817F7984919EA99876
:100230008D8C93A08D623D37587A9894818694A9CD
:10024000AB8F6349526B80837A7E94A2A9A1898384
:10025000899BA07F4D32436C8EA18D7F8A9EAEA07C
:100260007A4F465E78867E7887A0AAA9957E85918A
:10027000A1986C3F31527896A0848194A7AD966B7B
:100280004649657F86797589A5B2A88E7D8194A53A
:1002900095653730577D9A9E818399ADAE8F6344C3
:1002A0004F6B818373748CA5B1A78D818597A692BE
:1002B0006236325B7C949A8087A1AFAB8A604A55E4
:1002C0006D7F7F71708AA3ABAA92828993A1926598
:1002D0003B3556768A978486A3ACA98F6751586AB6
:1002E0007A79716E849EA8AA91868E91A2967047A3
:1002F00036506E7A8B8582A1ACA895715E606A7566
:10030000776E687598A3A8A68C8D9096A1885A3CA4
:100310003E5D70838D8093A9A5A1856B67696F731E
:100320006C666B89A3A0A796869595A09C754B3BA0
:100330004A65718686819FA9A79E7E6E6C696D6BEA
:1003400065627096A4A1A48C8B9B9DA7986B473D7A
:100350004D656D838683A1A9AAA083766E676764C5
:1003600064636E93A39FA28F8FA2A2A8996C473952
:100370004A646A81857E9FB0B2A985746E676662A1
:1003800063606B8EA29DA2998FA6A7A19C714C3F22
:100390004763686F81829BB3B0A687777A71645A8E
:1003A0005B616D899998989F9FA3A4958A836D58E6
:1003B0004C4B59647591969BA6A39F9082735D5395
:1003C000566A7579828A9AA6B5AA928A7F89947E9E
:1003D0005A4041637A858F858CA7B1A9886C655F87
:1003E000616B746D6D839BA9A6A1927E878F8E959C
:1003F0007F5F4F54697770778990A6A9977F6B7656
:100400007868676D707A8C94908D8D9A93838989C2
:100410008B958B6B4F5469767988897F92989184FC
:10042000767778737B847A7478828788908F8481DA
:100430008F9A9D9E8C705C606D72656A78758997E5
:10044000968E899494867B756F6A6E7372737D8FB6
:1004500098949C9E9BA3A08A6A5653585B607070C8
:100460007C95A6ABA19B96887D796B5A535B696E90
:1004700083979A9D9AA3ABA6A6956F4C46525D5D55
:100480006472758DABBBB39E988F807062534D586C
:100490006F7C7B8594A3B0AAA095898B8D7D5E49E6
:1004A000465568748283899FB1B39C887A71707352
:1004B0006F5E586679878B909192979B9A958E8DF7
:1004C0008B76605B59646F767E7C8192A1A1948F5C
:1004D00089827C79736660666D717482949B9C9846
:1004E000999B9EA39C826353535F61646B6C7D9761
:1004F000AEAFA29B9690847869534F5D6C70707B11
:100500008DA2B2B0A89D95999B8A684D4250636FA9
:10051000726E788FACBAA8928382848379615259C3
:100520006A7A7D77818E9EA69D958A8F9C9C8B6D25
:100530005955606A726A6268819EA5A294898A92FE
:10054000998C74635E646B6A6B717C9097999EA3BF
:10055000ACADA591715F5B585C615D606B829A9DEB
:100560009F999B9E9E9B8970625E5D615F647181B5
:1005700092959BA1A2A6A39F927C6D665C5C5E5C3B
:100580005F697D8F94999797989A988E80766B6221
:100590006360626E7880838C9CA6ADADA59A8A7CE0
:1005A00071635D5E59595F6A7C8692979AA1A39F99
:1005B000998A7D726965615F68747E8387939BA366
:1005C000ABA7A394827566616560605F64737D8A82
:1005D0008F8B8D91999D998F817979766E6B6A6EEB
:1005E000707683888E9AA3A39E978C7E77786E61AF
:1005F00058565D66737D7E8592A0A8AAA5968580D3
:100600007B6F686464646B7F8B929A9FA39C958ACE
:100610007E7C7B74695E5D616D7979787F89949960
:100620009A978D868583807E79746D70777B828AB8
:100630009293918D878889887F7167666971716AE5
:100640006B72818F989C989496938C82766F6A6B6C
:100650007276808A959A9692888689877C6C5F608C
:10066000656F7570707787969E9F988D8785837A62
:10067000757171747B868C8F9799958C80787C7D51
:100680007C72666469747E7F7A777A8790948E86AE
:100690008082868887827F7E7E84838486888C861B
:1006A00080797C838683796B6970797E776E6C73D1
:1006B000859598928A8A8F8F8C857774737B8182D7
:1006C000878C91918A807C7C828174686267717B5F
:1006D0007F79787D8A969B93887D7A7F84847B7AE4
:1006E000797D888C91918F8F887D757377797671FC
:1006F0006A6D748084807B7A7E868C8C878180840E
:100700008888847D7E7C8289898F8E8D8C847E7999
:100710007B7E7F776E696C747A7E7A7577828D9531
:10072000918982818486857E797E7C83898C94946C
:10073000918E827B7B7C7F786E6A676E767B7B7422
:10074000747B848C908C868083878887807F807F71
:100750008488878B8E8E8C847E7C7F8280756B678D
:1007600069707676717076838B9393918C8B8B8A7C
:1007700088807C7B787F858C919091908783827E26
:100780007C78706863656D717475798088909492D7
:100790008D88848484837D7E7F7D858A8C92908FF2
:1007A0008E837D7A787978736A666971787B7976D9
:1007B000777D858E8F8C8885888C8B86827E7F84E2
:1007C000898A8A8B8C8B89837F7C7B7B78706A6734
:1007D0006B6E727476787D868F94928E8987888905
:1007E00086837F7E80888A8D8D91908C867F7A79B2
:1007F00078766D65666B73767778777A80888D8C7E
:100800008989888889888B88828387878A8E918F57
:1008100089817C76777B7E776C6A6C6F7276737376
:1008200071767F888B8C8D8C8B8D8E908E87878454
:100830008687888C8C878883827B7A797D746E68C2
:1008400067686C7175747279838D8F8F8D898A8ECC
:1008500091918981808489898C8E8C8A8B8682761D
:10086000757779716A65696A707475727278838C4C
:100870008D8E8C8D8D8F93948C8886868687888CC0
:100880008A888884817A7A7A7B736E67696A6C70E9
:100890007375767A818A8C8D8D8A888B8F938E88FA
:1008A00084848585878B8D8A8B8F8F8C837C7676ED
:1008B000706B64615D6168727574788085898C8EF7
:1008C0008C85868A90908E8D929493918F8D8A8557
:1008D00085837D7574777B7B7671696360666A6CEE
:1008E000686C737C86929BA09A959595948D858073
:1008F0007C7C848B9090919193908A7D746C6E6FC8
:100900006B65605E606D7B85807A767B82898A8686
:100910007F7F8B969E9C928D8D8B8E8B8481808227
:10092000898A837C73777D898176655E5B62676C7B
:1009300066656C77878E9494908C8E9095938D8954
:1009400086888A8C90939595928E8C8782776D6934
:1009500071787A73696260666E726C68666F7E8C9D
:1009600092918C8992A1ACA99D8A807E8489877F8F
:100970007D838E9B9C968B7E72717472675B5454E0
:1009800058616B73787C7F82878A8D8E888180879F
:10099000959C9E97928D8F93958E847E7E858A8876
:1009A000847B71717D858476675C5C5D616465655F
:1009B00067707E89909392918F8E8E9494908C8A9A
:1009C000878A8D9598948E8C8A8B8A8681776E73B0
:1009D0007C837A6F646060626364615E626E7B8454
:1009E000878C949DA1A29D988F8986858381868D11
:1009F000919293949695918C857B716F76746D64CA
:100A0000636871716E6663646970757779838F96B8
:100A10009697999B9B9691888082868987807E880D
:100A200097A0A1998E85818080796F696B6F7370B3
:100A30006A656263666968686A717B8081868F997E
:100A4000A2A09A95908D8B87817F818B9294908EB6
:100A50008E9195948C837A787B7D7671686B7173B7
:100A60006E67615C5F6366686C74808B9092919234
:100A70009595918D8785878A8C898789939DA09C80
:100A800095908F908C847975767C7D786E6864659E
:100A900064625E5B5A5F646B6E7279848D908F8C3A
:100AA0008D9194938E8E90979EA09A928C8D8F8F1D
:100AB0008D8B898A8C8B87817E7E827F796F665E43
:100AC0005E5A5B5A595D656C7174777A7F82838454
:100AD0008A8F969999969498A0A7A69B8E86858AC8
:100AE0008B878584898F9490887F7A7876716B65FF
:100AF0005F5C5C595B5B5F646C6D6A6D737B828469
:100B00008488919CA5A8A39B95979C9A938B858795
:100B10008B8D8A8684899295938C847C7876737188
:100B20006E6C6B68625D5C5E61605C5A5E68778269
:100B30008483818796A5AFACA29892959B9C989050
:100B40008D8C8E8F8D89837F7D7D7F818586857C51
:100B5000746F707B7F7B6F63595A6066655F5A5C08
:100B6000697A84898583848C949EA1A39F9D9A9B96
:100B70009B9C9D9B948B817F807E7B756F707C8915
:100B800093948D86807C797C7C766C625F606263F6
:100B9000636466686A70767A7C7C7F80858F99A3AF
:100BA000A9A5A09E9E9E9C978B817A777C817F7B56
:100BB0007677828C9395918C898786827A777779FC
:100BC000746D6761605E5A595958575F6D757A7DCB
:100BD000828A969FA5A7A7A199999A9491908F90A0
:100BE0008E8887888987827C787A7E8489878483C7
:100BF00082888B847C7976726D665E55515059641B
:100C00006B68676D787C828686878E9198A0A49F9A
:100C10009EA0A2A1A29C9791867D7C7B7B7C7D7F00
:100C20007F7F878C8C8B8A858283817A716E7072CC
:100C3000726B6662626264666A655E626C747C8511
:100C4000898B9094989EA6A39A959290909697944B
:100C500090867F858F908B8179777B818381807E61
:100C6000848E908E8B80747375706A635D5557594E
:100C70005E646A656168737A8186888585868893F3
:100C8000A0A3A1A19E9DA2A39F968C82808587830D
:100C90007D7C78797C8083888C898B8C8C8A898414
:100CA0007B706E7376756C605555585B5E615C54F5
:100CB00057636F797F7F7C848E97A5B4B2A7A8AB6A
:100CC000A6A7A79E97918980818888837E78787E61
:100CD00084848480797C868C8B87807C7C7A76780F
:100CE000756E655D53515351525C605D636F7882E0
:100CF0008E908C929B9A9FACAFA5A2A3A2A4ABA707
:100D00009D988F827D7F7B746C64636D75747A812E
:100D100082838A908E8C89848280786F7274716BE2
:100D2000635C5B63635F6065615D6671777E888C21
:100D30008F9B9FA2AAB4ADA2A09F9D9D9C918886E7
:100D40007F787F8277737876797E7C797D807F82E9
:100D50008B8F9294918B8B89837C76716C645F58B6
:100D6000534C4D4F535A6363667481848E969698A4
:100D70009E9E9BA1A59D9CA29E9A9FA097959287BF
:100D80007F837E7574716C7177797A7E7D838E96A0
:100D900094908C888584807A726864676865615CE9
:100DA000585C605F616A6E6B6F777C839094959AF4
:100DB0009E9CA5B3B5ACA9A59E9EA1978C857F7678
:100DC000777B7871706F6E757976767C7B797C80B5
:100DD00084878684848584868884787271706D683F
:100DE000605552585C606B706B6F7C878F999B95D8
:100DF000999E999BA7A69996958F919A978F8E8881
:100E00007A777F7C77726760697274797E7A7A8488
:100E10008F969C9A928F8D8A8786837768606469A3
:100E2000686660585861636570756965717B7F8F0E
:100E3000948B8F9C9BA1B5B8A5A1A49796A09788E9
:100E4000867E67657676747A726977817E838C8414
:100E50007C858D91999A8E898C898789867E736627
:100E60005F656A645C544A49535D6270787070844F
:100E70009093A2A89C99A29D9AABAF9B93968D8CC0
:100E80009D9E8F8D8B77717F8076746F6065757690
:100E90007987857E869090979C928B89827D8380CE
:100EA00077726C5F565C69665F60554D5E6B6B7206
:100EB00079726A76888E97A49A909EAAA6B1BFAFDF
:100EC0009A9C9B91999E897B807464737D717377E2
:100ED0006A697B7E767C827375868C8E9993868A0E
:100EE0008F8A88878278716E665B5A61625C5D5E0C
:100EF000596071756E798074768E938D9B9E8F9BF1
:100F0000B2A7A0B5AE9199A18B8B9E8B747D7C62AC
:100F10006C816E62736B617A887577897C79949A3B
:100F20008B949C898B998E848B88797A80756D6976
:100F30005E59625F575B5A545D6C676E8A87758332
:100F4000948996AA9A8FA4A392A5B8A093A29886F2
:100F500096977E808E786272736778816F6F8177E3
:100F600071888C7C848C84879891858E928383870A
:100F700081797A796E665F565E6B6259574F536A14
:100F80006F67778472748F9791A1A38C96B0A29BA0
:100F9000B7BA9896A39391A5987B82876A647D716E
:100FA000606D6C6071816F6E88857C8A8F828D998F
:100FB0008783938D82898C7F7C827A747664526376
:100FC00070656061514D656F697D8D756D8C99920D
:100FD000A3AA9090ABA295AFB5938DA091879C9852
:100FE0007C828D70627B7C69707562677F786F85AB
:100FF000887B859591929C90838A8A7E8087827E69
:101000007C77726D625D676B60585B4E4F67675CA3
:1010100072816E73919791A4A78E97B2A49AB4B17E
:101020008F92A09092A8977D858A7271847767725B
:101030006F64737F7070817E78888F8791998A88BA
:10104000928C818583777B7C71706F5B54696B5D5B
:1010500063634F506B6B60788A716C8C928BA8B015
:101060009098B7A49ABCB991919E8887A2937884EE
:10107000886A69817769797461707E6D728A817618
:101080008A8E8697A08E8A9489818C897C7C7B71DC
:1010900071705C51667362606352506C7467768ADB
:1010A00076698899909BA99188A7AA97AAB89887EA
:1010B0009A9485979C7D728375647A856C67766D4A
:1010C0006E87877179897C809694868C8B848E97C5
:1010D0008C84847E79807E79776B534A6375655EF4
:1010E0005F524D65797179907E617FA19599AE9639
:1010F0007C9CAF95A2C09C76919C8598AD816786BB
:101100007D5A7A976C5B7A6F648C946C78967B745A
:101110009FA08292997B809C8C7B8B8B7174827751
:10112000737D6E484E7270595C6047456A766B817C
:1011300090706993A99BA4B19384A9AE96AEBB8C21
:101140007B9D98859F9F726F856D608589616175B4
:101150006A7190846C808D7A87A699899694899912
:101160009D8780867A6C76766B716F605752536775
:10117000726157594E4B6B7D6C788C78749EAE9D26
:10118000AEBA9392BEB296B3B283829E897C9A8E97
:10119000667283676280775C6E7D67769682718BFC
:1011A000917E8EA2918C9F9483909885808A7E7187
:1011B00078796E6C70675A5349546F6C575D5D4C0B
:1011C000618378708E8B6B81A39B99B2A488A3B93D
:1011D000A1A5BDA081949A8493A2826E827D677935
:1011E000876A5D706C6A85856B75887D83A09A8738
:1011F00090917F8897857A8784747C8579778179C7
:101200006F71644E57756D55595B47578076668789
:1012100090676F9F9E8FABAC8799B9A098C1BA8633
:101220008AA28C8DAB92677A8B696F96805C6D75A4
:1012300062798F6E61828571879C878393877F95A2
:10124000947A7883777076777678776F68675A586C
:1012500077775B5C665660867E6785976F719EA028
:101260008FA3A3848FB0A195B9BA8C8AA1938DA4C2
:10127000946C798B6C668B85636A776B7B957C68E5
:10128000858C74839B8D8793877B8E917B777F6F13
:1012900064747970757A6C676E5E4D6A80635661AE
:1012A000564B6B806B7699886D8FB2A6A6B79F8DD3
:1012B000B0BC9FADC5A381969B85929B74678374D8
:1012C00054708C6D5B716C6589926C72907A6E95BE
:1012D0009E848C947B83A1927784856C6E83796ED7
:1012E0007974646F765A4C6B785F595F514D6E7CA0
:1012F00068739286708BA89F9FAF9F91ABB198A4A3
:10130000C0A888959C8F9CA78672867F647891750B
:101310005F6A6867848869697E75718A8E7E848851
:101320007981988B767F836F6F7C7472827B677014
:101330007E6E56597078665E67635C7385757C9FB8
:1013400091708EB8A89CB19F83A3B9989DBD9D72E2
:101350008B9C818A9B7662827B596E8C705C6D6DF2
:101360006A878E6E6E867B74949E8D90917F87A027
:10137000947F848575757D75747A6E626E786E5F04
:1013800052577174555067625D7A816F86A180767D
:10139000A7B295A4B5979BBAA590B8BF8C88A7941F
:1013A000829B926D77886960817E5C606C616B81E5
:1013B0006E5F7A826C78928880918B7C909C857E1F
:1013C0008E816A75857A7B8373687D867569635AB9
:1013D0006D816E5E706D546B8E7E7B9F906C8AB05B
:1013E000978EADA085A1AD8F9AB6987B91957A889E
:1013F0009B7F6E83795E738E76616F706B80856B79
:101400006B817C788E94888E938385999581818277
:1014100077747D7A737775676E7F7A71705D4B64D0
:101420007F6759716950698F807C9C946F89B2A0E5
:1014300099B8A7829BB2979FC1A77B90A0848BA4E9
:1014400085657E805E6F927758686A5F7A8A6A6285
:101450007B736684957E7D8C79789C9D7D7F8C7571
:101460006C878A797F7F6A718A877D7F6C4B58820F
:101470007963706D4D5B878376959E7474A1ABA183
:10148000B0A9858FAD9F98B5AD837F8D7C7F9B8AFA
:1014900063697762627F816B69665F7992826F7937
:1014A0007A7387968C8A92847A919F9189897D72CA
:1014B0007F857C7D80716B7B8077787B6A535871E8
:1014C000716265665356747F748499837597AC9E78
:1014D000A4B29A92AFAE98A8B89A84918D7F919257
:1014E00071687C705F768974666C6C748B8A7476B4
:1014F0008177798D8F88897E708295887A807C70DB
:10150000767D76787E706A7B857F7D7F75615D787C
:101510008372696B5F57728B79718F8C6C82B0A903
:1015200098AEA78BA2BEA39CBBA979869F88839601
:101530007B5B747B575F88754E59625C768B6D62FE
:101540008081738DA4958E948482A0A487838C7BE4
:101550007284897D817E6A6C81837A7C7761506236
:101560007D7A6D6C6252648888758390726B96A9DF
:101570009BA0A18588ABA797ADAC80778F8A879D0C
:101580008E656F85726D8D8969686D6275948066F0
:10159000777D6D809C928893877692AA94838B80C6
:1015A0006F808F847E7D6C6677827C76756B584EFB
:1015B00059767B655758515C828E7A81967F719CF3
:1015C000BCAAA7AA8F8FB3B29CADB085728E8E8352
:1015D000998E61617C6B61838D6A626E66769C9088
:1015E0006D7D8C747BA098818D8665769E8A6C80DB
:1015F00080616F8A7A7083785C728F7D7285826E6B
:10160000675E648A90685A6A666381887283997695
:101610006A9DB39B9DA59398B1A79AB2B587749123
:1016200097868F8E706B7C6958768B6A505C636985
:10163000807F6A7485757192A5938789848CA39C39
:10164000868A8E7A73858C827B73687186806E78C9
:1016500087795F4F53768C71515A67616D888581A8
:101660009A906B86BFB797A1A38C93A59896AF9AD3
:10167000667097887D9386646F7B6269998F5B5EE5
:10168000766E7B9886758D8E7183AB9C7E88867214
:1016900084967F788A775E738A7F7A7F716C83887D
:1016A000777E8B7F717366536A8A74545E68545C6C
:1016B000808072858B6F739CAA9EA0A09296A9A928
:1016C000A5B2AF8E7E929A919490766C7671697C79
:1016D00088735F626973848478787F797B919B8F4C
:1016E00089877C839895878784726F7E837C756BEE
:1016F000616A7671717B7B726B61525D878862581B
:101700006965627D8E858C9881769EBAADA3A69E12
:10171000979DA2A0A8AD91757F948B868C837576DA
:101720007269788F83676871737D837A7C857B713A
:101730008092897F807B7983837B7E7D6E6A757BD7
:101740007876726F777E7877828784807763596F37
:10175000877C6B69665F6B7D848A968C767993A4AF
:10176000A7A59E96949699A7B7B19482888F9093D7
:101770009388786F66667B8C7B5F5B656B727B7C26
:101780007B776F6A798F95897E7D7F828A93918836
:101790007C75788288857E787573747A808480728F
:1017A000645757738B7A615E615F6D838789958A11
:1017B000727EA6B4AAA9A89A97A2A1A1B1AB867677
:1017C0008687828B8B796E6E63617A856D606C6CB7
:1017D00068757F7F868778758996908F948B8082D5
:1017E000868A8F8977727B79737A807770706C7351
:1017F00082847B7A7C6F555479907F655C5F6A76D2
:101800007D84979D7D6582ABAFA39C999C9B8F8CBB
:10181000A5BAA17B7A8D8E87828188876F5A6B8A61
:10182000886D6773787774738391826B7893907BFC
:101830007B888C887F78838F7F68728988766E73C7
:101840007B807B757E897E6F7485856A5060817F21
:101850005F50677E725E6585A19A797699B1A08E98
:10186000A0BEBC9C838FB0B89C8694A1896A708D01
:101870009280675B6A7E6D556A8D826261788A8F1D
:101880008375879D876B809F998682818284776C20
:101890008598795B6B7B7272776F75806E617E91D4
:1018A0007352536B80816656768E6E587DA8A68DD6
:1018B0007E8DAFB8958AB7CEA981849FB1A27E767E
:1018C00093996D506C918A685A6D847C5D5980A0A3
:1018D0008C676C8F9A81728AA499766378968C6CE7
:1018E0006E88815F5671888472656C81816F7A958C
:1018F00093828287888C783B2072C272255EAC828C
:101900004B7AC2C89691958BB0CEA175A1B87234AE
:101910005B9C946F63708686737CA7C1AD887E9153
:10192000A698787A93875D445175907B596A8C802C
:1019300067799EAA98796F86937E70808779665BB7
:1019400068848C7A7280868382858B845959595930
:1019500059595959595959595959595959595959F7
:1019600059595959595959595959595959595959E7
:1019700059595959595959595959595959595959D7
:1019800059595959595959595959595959595959C7
:105D20005959595911241FBECFE5D8E0DEBFCDBF68
:105D300010E0A0E6B0E0ECE7FEE502C005900D92B1
:105D4000A436B107D9F710E0A4E6B0E001C01D9277
:105D5000A736B107E1F70E94392F0C943C2F0C9421
:105D600000001F920F920FB60F9211242F933F93B2
:105D70004F938F939F93EF93FF9380916500909142
:105D80006600805D9C4500F12091650030916600C1
:105D900040916400842F90E08053934A281739077C
:105DA00059F489B78F7E89BF8FB58E7F8FBD85B53A
:105DB0008E7F85BD12BA10C08091650090916600FB
:105DC0004053481B43BD08C0E0916500F091660058
:105DD000EC5AFF4FE491E3BD80916500909166001D
:105DE00001969093660080936500FF91EF919F91DB
:105DF0008F914F913F912F910F900FBE0F901F9059
:105E000018958FEF81BB12BA14BC80E883BD89EF6F
:105E100085BDE4E5F0E0E491E3BDF8948EB5877EBE
:105E200088608EBD8FB58C7F8FBD8EB5887F816079
:105E30008EBD8EEA95E09BBD8ABD89B7806189BF22
:105E4000E3E2FDE5E491E0936400109266001092B5
:105E500065007894089589B78F7E89BF8FB58E7F4E
:105E60008FBD85B58E7F85BD12BA08950E94012F22
:0C5E700008950E94012FFFCFF894FFCF8F
:045E7C00F82AD05CD4
:00000001FF
