:100000000C942A000C9447000C9447000C94470071
:100010000C9447000C9447000C9447000C94470044
:100020000C9447000C9447000C9447000C94470034
:100030000C9447000C9447000C9447000C94470024
:100040000C9447000C9447000C9447000C94470014
:100050000C94470011241FBECFE5D4E0DEBFCDBF16
:1000600010E0A0E6B0E0E0E5F7E102C005900D92F7
:10007000AA36B107D9F710E0AAE6B0E001C01D9298
:10008000AD36B107E1F70E9422010C94A60B0C9447
:1000900000008FEF85BB88E893E10197F1F794E3C7
:1000A00095BB80E385BBE4ECF9E03197F1F795BBB4
:1000B00085BB2AEF30E0F9013197F1F795BB85BB9D
:1000C000C9010197F1F784E285BB80E285BBC901D4
:1000D0000197F1F70895382F307F232F246025BB37
:1000E00035BB90E024E0880F991F2A95E1F7282F6F
:1000F000246025BB85BB84EF91E0FC013197F1F7CB
:100100000197F1F708958FEF84BB15BA0E9449005B
:1001100084E285BB80E285BB54E855BB40E845BB23
:1001200024EF31E0C9010197F1F7C9010197F1F717
:1001300094E095BB15BA84EC85BB80EC85BBF901D6
:100140003197F1F7F9013197F1F795BB15BA84E6CC
:1001500085BB80E685BBF9013197F1F7F90131974D
:10016000F1F755BB45BB95BB15BAC9010197F1F72E
:10017000C9010197F1F70895982F907F292F2560E5
:1001800025BB916095BB8295807F982F956095BB2C
:10019000816085BB84EF91E0FC013197F1F7019715
:1001A000F1F70895CF93DF93EC0102C00E94BC00E9
:1001B00089918823D9F7DF91CF910895CF92DF926B
:1001C000EF92FF920F931F937C016AE070E00E9410
:1001D000700BD62EC72E862F972F6AE070E00E94F4
:1001E000700B162F072F862F972F6AE070E00E9462
:1001F000700BCB016AE070E00E94700B805D0E9482
:10020000BC00812F902F6AE070E00E94700B805D2F
:100210000E94BC008D2D9C2D6AE070E00E94700B46
:10022000805D0E94BC00C7016AE070E00E94700B14
:10023000805D0E94BC001F910F91FF90EF90DF90B6
:10024000CF9008957F928F929F92AF92BF92CF925C
:10025000DF92EF92FF920F931F93DF93CF93CDB76F
:10026000DEB7C854D0400FB6F894DEBF0FBECDBF86
:100270000E94830084E085BB15BA84E185BB80E1E0
:1002800085BB84EF91E0FC013197F1F70197F1F71D
:1002900080E690E00E94D2000E9403028823D1F5FC
:1002A000CE0183960E943B0A8823A1F57E01089423
:1002B000E11CF11C7DE0A72EB12CAC0EBD1E64EC40
:1002C000762E50EC852E44E0942E04EF11E036E1BA
:1002D000C32ED12CCC0EDD1EC70167E670E00E9454
:1002E0000E088823C9F7C701B5010E949F0588231E
:1002F00099F78E89882381F375BA85BA95BA15BAAC
:10030000C8010197F1F7C8010197F1F7C6010E94F2
:10031000D200E9CF80E090E00E943B0AFFCFC49A70
:1003200080EA87BBBC9ABC9BC49A81E58DB981E009
:100330008EB908958FEF8FB9779BFECF8FB1089557
:10034000DF92EF92FF920F931F93D82E7A018B01C9
:1003500087FF0CC087E740E050E060E070E00E945B
:10036000A001823008F049C08FE7D822C49AC4980F
:100370008FEF8FB9779BFECF8FB124EC39E09FEFE1
:100380009FB9779BFECF8FB18F3F29F0215030402E
:10039000B9F78FEF32C0DFB8779BFECF812F992757
:1003A000AA27BB278FB9779BFECFC801AA27BB27F7
:1003B0008FB9779BFECFBB27A12F902F8F2D8FB9A1
:1003C000779BFECFEFB8779BFECF80E4D81611F471
:1003D00085E906C088E4D81611F487E801C081E0F9
:1003E0008FB9779BFECF9AE02FEF2FB9779BFECF87
:1003F0008FB187FF02C09150C1F71F910F91FF90FD
:10040000EF90DF900895CF92DF92EF92FF920F93DB
:100410001F93DF93CF9300D000D0CDB7DEB7C49A3F
:1004200080EA87BBBC9ABC9BC49A81E58DB981E008
:100430008EB984E69FEF9FB9779BFECF2FB1815095
:10044000D1F780E440E050E060E070E00E94A0015D
:10045000813009F06CC088E44AEA51E060E070E065
:100460000E94A001813009F040C06E010894C11CB7
:10047000D11C76019FEF9E012B5F3F4F9FB9779B69
:10048000FECF8FB1F70181937F01E217F307B1F738
:100490008B81813009F04BC08C818A3A09F047C0CA
:1004A00008EA11E604C00150104009F440C089EE8A
:1004B00040E050E060E070E40E94A001882399F7DA
:1004C00050C09FEF9FB9779BFECF8FB1F60181930C
:1004D0006F01EE15FF05B1F7898186FD03C074E059
:1004E000F72E26C06CE0F62E23C089EE40E050E0E7
:1004F00060E070E00E94A001823028F0FF24F394B5
:1005000051E4E52E04C042E0F42E39EEE32E08EA71
:1005100011E603C00150104051F08E2D40E050E034
:1005200060E070E00E94A0018823A1F725C0FF24AD
:10053000F0926C00C49A8FEF8FB9779BFECF8FB18A
:1005400080E0FF2009F481E00F900F900F900F9052
:10055000CF91DF911F910F91FF90EF90DF90CF909F
:1005600008958AE740E050E060E070E00E94A0015A
:10057000882309F4A6CFDBCF80E540E052E060E0BD
:1005800070E00E94A001882391F6D2CFAF92BF9273
:10059000CF92DF92EF92FF920F931F93CF93DF934F
:1005A000B82EA92E6901FFEFEF2EFFE7FF2EE02204
:1005B000F122E114F10409F476C0C701820F931F00
:1005C0008150924008F06FC080916C0083FD07C09D
:1005D000E9E0440F551F661F771FEA95D1F781E5C3
:1005E0000E94A001882309F053C088EE93E03FEFFA
:1005F0003FB9779BFECF2FB12F3F19F40197C1F779
:1006000047C02E3F09F044C0CC27DD27CC19DD09B7
:10061000CE5FDD4FCE19DF098FEF07C08FB9779B13
:10062000FECF9FB10894C108D108C114D104B1F71D
:1006300017FF15C00B2D1A2DDD24DA94DFB8779B38
:10064000FECF8FB1F80109950894E108F108E11493
:10065000F10411F0882391F7CE0DDF1D12C08B2D10
:100660009A2D9C01F9019FEF9FB9779BFECF8FB127
:1006700080830894E108F108E114F10411F0319647
:10068000F3CF8FEF8FB9779BFECF9FB12197D1F733
:10069000C49A8FEF8FB9779BFECF8FB180E0EF28A0
:1006A00019F081E001C084E0DF91CF911F910F919B
:1006B000FF90EF90DF90CF90BF90AF9008958F9212
:1006C0009F92AF92BF92CF92DF92EF92FF920F93E1
:1006D0001F93DF93CF9300D000D0CDB7DEB75C017E
:1006E00080906A0090906B0082E0A816B10408F434
:1006F0007DC0F40180859185A816B90608F076C002
:100700008081813021F0823009F070C051C0C50174
:10071000969587958A0D9B1D9C013170892F99278D
:1007200086956C01EE24FF24F4014285538564858F
:100730007585CE010196F1E02F3F3F0749F0C40EC9
:10074000D51EE61EF71EB701A60102E010E01EC08E
:100750004C0D5D1D6E1D7F1D2FEF31E001E010E09F
:100760000E94C602882309F041C0F40142855385E6
:10077000648575854F5F5F4F6F4F7F4F4C0D5D1DDB
:100780006E1D7F1DCE01029620E030E00E94C60261
:10079000882361F589819A81A0FE07C09C0144E00D
:1007A000369527954A95E1F723C09C013F7020C0FC
:1007B0004B2D552760E070E0F40182859385A48578
:1007C000B585480F591F6A1F7B1FFFEFAF22BB245F
:1007D000AA0CBB1CCE010196950102E010E00E941C
:1007E000C602882319F429813A8102C021E030E051
:1007F000C9010F900F900F900F90CF91DF911F9133
:100800000F91FF90EF90DF90CF90BF90AF909F90AF
:100810008F900895EF92FF920F931F93CF93DF93E2
:100820007C01C0916A00D0916B00FC0100811181B4
:100830000F5F1F4F09F46FC02085318542855385B6
:10084000211531054105510509F465C0C8018F70B6
:100850009070892B09F05AC02F5F3F4F4F4F5F4F69
:10086000208731874287538746815781411551053B
:1008700039F48C819D810817190708F447C04BC0D3
:10088000898190E00197980174E0369527957A95D3
:10089000E1F782239323892BC9F5CA010E945F03E4
:1008A000BC018230910510F481E036C088859985BD
:1008B0006817790780F5F70177836683C0916A002E
:1008C000D0916B00625070408885998502976817B7
:1008D000790728F020E030E040E050E012C080E0EE
:1008E00090E0298130E040E050E00E94510B9B01F4
:1008F000AC018A899B89AC89BD89280F391F4A1FA1
:100900005B1FF7012087318742875387F7011183E7
:10091000008380E001C083E0DF91CF911F910F91B0
:10092000FF90EF9008952F923F924F925F926F92B7
:100930007F928F929F92AF92BF92CF92DF92EF926F
:10094000FF920F931F93CF93DF93E82FC0916A001C
:10095000D0916B00209711F488E0DEC08A8180FD81
:1009600002C087E0D9C06A8C7B8C8C8C9D8C4E2F0A
:10097000592FCB01DA015C016D016A147B048C04F0
:100980009D0410F4640153012E893F89488D598DCF
:100990001E8A1F8A188E198EA114B104C104D104B5
:1009A00009F4B9C08981682E772488249924F9E054
:1009B000660C771C881C991CFA95D1F72115310516
:1009C00041055105A1F119012A01089421083108B6
:1009D00041085108C601B501615070408040904007
:1009E000A40193010E94840B79018A01C201B10123
:1009F000A40193010E94840BE216F3060407150775
:100A0000B0F088279927DC0186199709A809B90948
:100A100082219321A421B5218E8B9F8BA88FB98F22
:100A2000A81AB90ACA0ADB0A68A179A125C06E8D85
:100A30007F8D79A368A320C0CB010E945F03BC0116
:100A40008230910508F458C0888599856817790720
:100A500008F052C079A368A38E899F89A88DB98DAB
:100A6000860D971DA81DB91D8E8B9F8BA88FB98FE2
:100A7000A618B708C808D9086A147B048C049D041A
:100A8000D8F28E899F89A88DB98D8A0D9B1DAC1DCA
:100A9000BD1D8E8B9F8BA88FB98FE9E0D694C7942C
:100AA000B794A794EA95D1F7EA2CE394EB82C0902F
:100AB0006A00D0906B0062507040F601808591858D
:100AC000029768177907C0F480E090E0218130E058
:100AD00040E050E00E94510B9B01AC01F60182897D
:100AE0009389A489B589280F391F4A1F5B1F2115D7
:100AF00031054105510519F41A8281E00DC02E0D12
:100B0000311D411D511D21503040404050402AA30D
:100B10003BA34CA35DA380E0DF91CF911F910F9188
:100B2000FF90EF90DF90CF90BF90AF909F908F900D
:100B30007F906F905F904F903F902F900895AF926D
:100B4000BF92CF92DF92EF92FF920F931F93DF93AA
:100B5000CF93CDB7DEB7AC970FB6F894DEBF0FBE1C
:100B6000CDBF6C015B0100916A0010916B00011513
:100B7000110511F488E012C1CE010D96D801179627
:100B80009C938E931697CE010196F60193838283F0
:100B90006115710511F083E075C0D60111961C92A4
:100BA0001E9214966D917C9115976130710509F430
:100BB000F4C0F801808591856817790708F0EDC0C9
:100BC00017967C936E9316976115710519F1625013
:100BD00070408085918502976817790728F020E09A
:100BE00030E040E050E01DC080E090E0D801119678
:100BF0002C9130E040E050E00E94510B9B01AC0191
:100C0000F80182899389A489B589280F391F4A1F61
:100C10005B1F07C0D8011E962D913D914D915C91AF
:100C20005197F6012087318742875387B4C0E091FE
:100C30006A00F0916B00E680F780D6012D913C911F
:100C40002F703070A5E0220F331FAA95E1F7C7017E
:100C500000E210E00E94C602882311F081E020C06B
:100C6000F7012081222309F4AAC08385253E29F0BB
:100C70002E3219F08F7383FF1DC0C6010E940A0433
:100C8000882371F4D60118964D915D916D917C91F8
:100C90001B97411551056105710549F6882351F0EF
:100CA000F6011086118612861386833019F0882388
:100CB00009F074C09501275F3F4FF601808591854B
:100CC000A285B3850097A105B10509F456C0E0914E
:100CD0006A00F0916B004681578180E090E0FA0154
:100CE000E80FF91FE081E03251F0E53009F4E5EE5C
:100CF000D901ED939D0101968830910581F7FA01A4
:100D00008085803211F4F90110C0F9018EE28193DF
:100D1000DA012C5F3F4F18968C911897803229F09A
:100D200081931196E217F307B1F7DA011B968C91C4
:100D3000D50118968C93DA015C960D911D912D9139
:100D40003C915F97D5010D931D932D933C93139781
:100D5000DA0158968D919C915997D50115969C93DF
:100D60008E931497DA0156968D919C915797D501E1
:100D700017969C938E9316979F01F9011082C601D6
:100D80000E940A04833051F4D60118961D921D92D8
:100D90001D921C921B9780E001C081E0AC960FB6BB
:100DA000F894DEBF0FBECDBFCF91DF911F910F91A1
:100DB000FF90EF90DF90CF90BF90AF90089583E0C9
:100DC0006FCF9F92AF92BF92CF92DF92EF92FF923E
:100DD0000F931F93CF93DF93EC016B01FB01808195
:100DE0008F3219F40894C11CD11C1D821C82F6019B
:100DF00080818032E0F4E0916A00F0916B0019820A
:100E0000188280859185892B61F01F821E828685DC
:100E10009785A089B18988879987AA87BB8740E091
:100E200001C041E00680F781E02D1082DFC010E2B2
:100E3000A12E99249394AA81BB81FD018BE090E0BF
:100E400001C0A19201972FEF8F3F9207D1F720E0C9
:100E5000BB2438E002C028E03BE0F601EB0DF11DB9
:100E60009081B3949032B8F09F32A9F09E3211F085
:100E7000231730F0383009F0B6C09E3261F3B3C0AA
:100E8000892F81568A3108F49052FD01E20FF11D3D
:100E900090832F5FE2CF222309F4A5C01B961C92FA
:100EA0001B97903210F41B969C9200916A0010914F
:100EB0006B00198218826C817D816130710509F4A3
:100EC000A4C0F801808591856817790708F09DC056
:100ED0007F836E836115710511F1625070408085CA
:100EE000918502976817790728F020E030E040E00C
:100EF00050E01AC080E090E0F801218130E040E04D
:100F000050E00E94510B9B01AC01F801828993894A
:100F1000A489B589280F391F4A1F5B1F05C0F80136
:100F20002685378540895189288739874A875B8795
:100F3000F801E680F780488559856A857B85288198
:100F400039812F703070B5E0220F331FBA95E1F769
:100F5000C70100E210E00E94C602882309F055C0D4
:100F6000F7018081882309F44EC0838583FD1CC06E
:100F7000D7018A819B819C01F9014BE050E04150EF
:100F800050402FEF4F3F520709F441C08C91282F5A
:100F900030E08081281B31092115310519F41196A3
:100FA0003196EDCF222399F1CE010E940A04482FF9
:100FB000882309F28330D1F4EA81FB818385882379
:100FC000A1F014C0E0916A00F0916B000680F781F7
:100FD000E02D838584FF09C0CB0CD11C828D938DBD
:100FE0009D838C8328CF45E001C044E0842FDF91AE
:100FF000CF911F910F91FF90EF90DF90CF90BF9016
:10100000AF909F90089543E0D7CF41E0EFCFEA81C2
:10101000FB8183858823B1F240E0E8CFDF92EF9235
:10102000FF920F931F93DF93CF93CDB7DEB7AC97AB
:101030000FB6F894DEBF0FBECDBF7C01E0916A0011
:10104000F0916B00309719F488E0D82E6AC08E01B9
:10105000035F1F4F17830683CE010196F701938329
:101060008283C7010E94E106D82E882309F054C06C
:101070008D85882349F0888D84FF51C0F801828DC9
:10108000938DF7019583848300916A0010916B0022
:10109000F70111821082648175816130710509F454
:1010A0004FC0F801808591856817790708F048C01E
:1010B000F701778366836115710519F162507040FD
:1010C000F8018085918502976817790728F020E05C
:1010D00030E040E050E01AC080E090E0F80121816B
:1010E00030E040E050E00E94510B9B01AC01F80160
:1010F00082899389A489B589280F391F4A1F5B1FEC
:1011000005C0F8012685378540895189F701208778
:1011100031874287538705C0F3E08F1711F404E04D
:10112000D02E8D2DAC960FB6F894DEBF0FBECDBF7E
:10113000CF91DF911F910F91FF90EF90DF90089575
:10114000DD24D394EECFEF92FF920F931F93DF93A2
:10115000CF93CDB7DEB7E8970FB6F894DEBF0FBEDA
:10116000CDBFBC0100916A0010916B000115110503
:1011700011F428E032C0F801128299E1E92EF12C35
:10118000EC0EFD1EF782E682CE010D969C838B83CA
:10119000CE0101960E94E106282F8823F1F4898D63
:1011A0008823D1F08CA184FD17C0F701828D938D27
:1011B000F801978F868FF701848D958DA68DB78D59
:1011C000F801828F938FA48FB58F168A178A108E9D
:1011D000118E81E0828301C023E0822FE8960FB652
:1011E000F894DEBF0FBECDBFCF91DF911F910F915D
:1011F000FF90EF9008954F925F926F927F928F923F
:101200009F92AF92BF92CF92DF92EF92FF920F9395
:101210001F93CF93DF933C016B014A01C0916A0099
:10122000D0916B00FA0111821082209711F488E0AE
:10123000CDC08A8180FD02C087E0C8C02A8D3B8D69
:101240004C8D5D8D8E899F89A88DB98D281B390B9A
:101250004A0B5B0BCB01A0E0B0E0281739074A0727
:101260005B0708F469015301412C32E0532EA9C0F9
:10127000EE88FF88088D198DD801C7019170A07084
:10128000B0700097A105B10509F05AC0C801B701B7
:1012900029E096958795779567952A95D1F72981C5
:1012A00030E040E050E00E94840B6115710581053B
:1012B000910591F4E114F1040105110519F48E8DE5
:1012C0009F8D04C088A199A10E945F03823091057F
:1012D00050F199A388A31B8200916A0010916B00C2
:1012E00068A179A162507040F801808591850297CC
:1012F00068177907C0F480E090E0218130E040E099
:1013000050E00E94510B9B01AC01F8018289938946
:10131000A489B589280F391F4A1F5B1F2115310584
:101320004105510511F41A822EC08B81280F311D01
:10133000411D511D2AA33BA34CA35DA38F5F8B834B
:101340002E893F89488D598DC9019170B201681B62
:10135000790B76016C157D0508F47B018A8131706B
:101360004AA15BA16CA17DA186FF04C08701106822
:10137000C30102C0C50187010E94C602882339F05B
:101380001A82823011F081E021C086E01FC0AE0CCD
:10139000BF1CC701A0E0B0E02E893F89488D598D60
:1013A000280F391F4A1F5B1F2E8B3F8B488F598F89
:1013B000F401808191818E0D9F1D91838083CE18D1
:1013C000DF08C114D10409F053CF80E0DF91CF9141
:1013D0001F910F91FF90EF90DF90CF90BF90AF9053
:1013E0009F908F907F906F905F904F900895AF92F5
:1013F000BF92CF92DF92EF92FF920F931F93CF9302
:10140000DF93B82EA92E6A017B012EEF31E002E0B6
:1014100010E00E94C602882311F023E020C0CB2DEB
:10142000DA2D8881998185559A4A11F022E017C0FA
:101430008B2D9A2DB701A60126E330E002E010E0E3
:101440000E94C602882311F021E009C020E08881B3
:1014500099818654914409F421E081E02827822F64
:10146000DF91CF911F910F91FF90EF90DF90CF9080
:10147000BF90AF9008956F927F928F929F92AF929C
:10148000BF92CF92DF92EF92FF920F931F93DF9361
:10149000CF93CDB7DEB7A4970FB6F894DEBF0FBEDB
:1014A000CDBF5C0110926B0010926A00009709F4A6
:1014B000DEC00E94030280FF02C082E0DDC04E0158
:1014C0000894811C911CC40140E050E060E070E091
:1014D0000E94F709813021F0CC24DD2476011BC065
:1014E000C40140E050E060E070E02EEB31E000E14C
:1014F00010E00E94C602882309F0BBC08D818823BA
:1015000009F4B9C0C984DA84EB84FC84C401B7014E
:10151000A6010E94F709833009F4ABC0882309F0C3
:10152000AAC0CE010196B701A6012DE030E004E289
:1015300010E00E94C602882309F09BC08A859B8523
:10154000BC0180E090E0611571058105910521F4F1
:10155000688D798D8A8D9B8D2C8130E040E050E044
:101560000E94510B3B014C018A819B81A0E0B0E0BD
:10157000C80ED91EEA1EFB1EF501C286D386E4867C
:10158000F586898181832D813E81358324838F81F6
:1015900098857C0100E010E0E114F10401051105DB
:1015A00021F4EC88FD880E891F898A819B81A0E047
:1015B000B0E0E81AF90A0A0B1B0BE618F70808094D
:1015C000190974E0369527957A95E1F7C901A0E0ED
:1015D000B0E0E81AF90A0A0B1B0BF501218130E093
:1015E00040E050E0C801B7010E94840B2E5F3F4FDE
:1015F0004F4F5F4FF50131872087273FFFE03F07BF
:10160000F0E04F07F0E05F0710F481E006C0275FCD
:101610003F4F4040504078F582E0F50180832285BD
:10162000338544855585D401C301820F931FA41FC0
:10163000B51F86879787A08BB18B8481958164E0E5
:10164000969587956A95E1F7A0E0B0E0820F931F29
:10165000A41FB51F860D971DA81DB91D828B938BE6
:10166000A48BB58B1282B0926B00A0926A0080E0CE
:1016700003C081E001C089E0A4960FB6F894DEBFF4
:101680000FBECDBFCF91DF911F910F91FF90EF90D3
:10169000DF90CF90BF90AF909F908F907F906F9092
:1016A0000895629FD001739FF001829FE00DF11DAC
:1016B000649FE00DF11D929FF00D839FF00D749FCC
:1016C000F00D659FF00D9927729FB00DE11DF91F78
:1016D000639FB00DE11DF91FBD01CF0111240895D5
:1016E000AA1BBB1B51E107C0AA1FBB1FA617B70748
:1016F00010F0A61BB70B881F991F5A95A9F7809564
:101700009095BC01CD010895A1E21A2EAA1BBB1B26
:10171000FD010DC0AA1FBB1FEE1FFF1FA217B307BD
:10172000E407F50720F0A21BB30BE40BF50B661FD3
:10173000771F881F991F1A9469F760957095809597
:1017400090959B01AC01BD01CF010895F894FFCFA6
:0A175000534443415244002F0000AF
:00000001FF
