:100000000C9432000C943C000C943C000C943C008A
:100010000C943C000C943C000C943C000C943C0070
:100020000C943C000C943C000C943C000C943C0060
:100030000C943C000C943C000C943C000C943C0050
:100040000C943C000C943C000C943C000C943C0040
:100050000C943C0088224411AA66559988AA22660D
:100060004455119911241FBECFE5D4E0DEBFCDBFAA
:100070000E943E000C9499000C94000080EF8ABB13
:100080008FEF84BB11BA1BBA15BA8FE082BB20EE8A
:100090003EE240E45FE180B38F708B3049F18C30F9
:1000A00020F4873009F042C032C08D3091F08E309C
:1000B00009F03CC0E4E5F0E0849185BB85B38BBBDF
:1000C000C9010197F1F7319680E0E835F807A1F70B
:1000D000E2CFE8E5F0E0849185BB85B38BBBC90135
:1000E0000197F1F7319680E0EC35F807A1F7D3CF0F
:1000F000ECE5F0E0849185BB85B38BBBC90101972A
:10010000F1F7319680E0E436F807A1F7C4CFECE5CB
:10011000F0E0849185BB85B38BBBCA010197F1F7F1
:10012000319680E0E436F807A1F7B5CF1BBA15BACF
:06013000B2CFF894FFCFEE
:00000001FF
