:100000000C942A000C9447000C9447000C94470071
:100010000C9447000C9447000C9447000C94470044
:100020000C9447000C9447000C9447000C94470034
:100030000C9447000C9447000C9447000C94470024
:100040000C9447000C9447000C9447000C94470014
:100050000C94470011241FBECFE5D4E0DEBFCDBF16
:1000600010E0A0E6B0E0ECE5FAE002C005900D92E9
:10007000A438B107D9F710E0A4E8B0E001C01D92A0
:10008000AE39B107E1F70E94C8010C942C050C941D
:1000900000008FEF88BB88EC90E020E931E0F901A7
:1000A0003197F1F70197D9F794E398BB80E388BBC8
:1000B000E0E4FCE93197F1F798BB88BB20EA3FE028
:1000C000F9013197F1F798BB88BBC9010197F1F7A6
:1000D00084E288BB80E288BBC9010197F1F70895EB
:1000E000382F307F232F246028BB38BB90E024E0DA
:1000F000880F991F2A95E1F7282F246028BB88BB19
:1001000080E49FE1FC013197F1F70197F1F7089541
:100110008FEF87BB18BA0E94490084E288BB80E257
:1001200088BB54E858BB40E848BB20E43FE1C90124
:100130000197F1F7C9010197F1F794E098BB18BA5C
:1001400084EC88BB80EC88BBF9013197F1F7F901A9
:100150003197F1F798BB18BA84E688BB80E688BB74
:10016000F9013197F1F7F9013197F1F758BB48BB25
:1001700098BB18BAC9010197F1F7C9010197F1F7C6
:100180000895982F907F292F256028BB916098BBF8
:100190008295807F982F956098BB816088BB80E4B2
:1001A0009FE1FC013197F1F70197F1F70895CF93A3
:1001B000DF93EC0102C00E94C10089918823D9F726
:1001C000DF91CF910895CF92DF92EF92FF920F933C
:1001D0001F937C016AE070E00E94E104D62EC72ED6
:1001E000862F972F6AE070E00E94E104162F072FF8
:1001F000862F972F6AE070E00E94E104CB016AE04D
:1002000070E00E94E104805D0E94C100812F902F68
:100210006AE070E00E94E104805D0E94C1008D2DC3
:100220009C2D6AE070E00E94E104805D0E94C100A4
:10023000C7016AE070E00E94E104805D0E94C10095
:100240001F910F91FF90EF90DF90CF9008958EEF68
:1002500081BB10BC87E689B986E880BD88E18AB990
:1002600085E790E090939B0080939A0008951F93F8
:10027000182F8A3019F48DE00E9437015D9BFECF64
:100280001CB980E090E01F9108955F9BFECF8CB178
:10029000089589E08ABBDB9AD89880EA9FE00197AD
:1002A000F1F781E087B986EC86B93699FECF84B143
:1002B0008093880095B180939000089586E08ABB72
:1002C000DA9AD99880EA9FE00197F1F717B886EC9F
:1002D00086B93699FECF84B180938F0095B1809313
:1002E000870008950E9449010E945E018091840068
:1002F00090918500FC01EF56FF4F209190002083E4
:10030000FC01E757FF4F20918700208301969093CF
:10031000850080938400079794F0109285001092D6
:1003200084008091910090919500891B80939700A3
:100330008091890090918D00891B8093860000D068
:1003400000D0EDB7FEB7319680E690E0ADB7BEB70E
:1003500012969C938E9311978091970082831382BB
:100360000E944F02EDB7FEB7319683E690E0ADB73D
:10037000BEB712969C938E931197809186008283CC
:1003800013820E944F020F900F900F900F900895CC
:10039000AF92BF92CF92DF92EF92FF920F931F9393
:1003A000CF93DF9311BA8FEF82BB0E94880084E065
:1003B00088BB18BA84E188BB80E188BB80E49FE1F8
:1003C000FC013197F1F70197F1F78EEF81BB10BC7B
:1003D00087E689B986E880BD88E18AB985E790E03B
:1003E00090939B0080939A0087E690E00E94D7004C
:1003F00003E610E0C0E7D0E050E9E52E51E0F52E2D
:1004000042E0A42EB12C31E0C32ED12C829912C02F
:1004100084EF91E0F7013197F1F70197D9F7829BCB
:10042000FECF00D000D0EDB7FEB712830183D48297
:10043000C38224C083991AC084EF91E0F7013197F9
:10044000F1F70197D9F7839BFECF00D000D0EDB72D
:10045000FEB712830183148213820E944F02EDB70C
:10046000FEB7D283C183B482A38210C000D000D073
:10047000EDB7FEB712830183148213820E944F02EC
:10048000EDB7FEB7D283C183148213820E944F025C
:100490000F900F900F900F900E947201B7CFA0E0C5
:1004A000B0E0E5E5F2E00C940505FE0135966191BA
:1004B000719180919A0090919B00AF010E9464021B
:1004C0002096E2E00C942105ABE0B0E0EAE6F2E031
:1004D0000C94F5043C012B015A01FC011782168291
:1004E000838181FD03C06FEF7FEFC6C19AE0892E43
:1004F0001E010894211C311CF3012381F20123FD0C
:10050000859123FF81912F01882309F4B2C185329F
:1005100039F423FD859123FF81912F01853229F440
:1005200090E0B3010E945704E7CF982FFF24EE24F8
:100530009924FFE1FF15D0F09B3269F09C3228F43A
:10054000903259F0933291F40EC09D3249F09033BD
:1005500069F441E024C052E0F52A84E0F82A28C07A
:1005600098E0F92A25C0E0E1FE2A22C0F7FC29C064
:10057000892F80538A3070F4F6FE05C0989C902C29
:100580001124980E15C0E89CE02C1124E80EF0E22E
:10059000FF2A0EC09E3229F4F6FC6BC140E4F42A17
:1005A00007C09C3619F450E8F52A02C0983649F481
:1005B000F20123FD959123FF91912F01992309F0D9
:1005C000B8CF892F8554833018F08052833038F4A7
:1005D00044E050E0A40EB51E5FE359830FC093368C
:1005E00031F0933779F0933509F056C020C0F5010A
:1005F0008081898342E050E0A40EB51E610101E0D4
:1006000010E012C0F501C080D180F6FC03C06FEF8E
:100610007FEF02C0692D70E042E050E0A40EB51EED
:10062000C6010E944C048C015FE7F52214C0F5015D
:10063000C080D180F6FC03C06FEF7FEF02C0692D50
:1006400070E042E050E0A40EB51EC6010E944104D5
:100650008C0150E8F52AF3FE07C01AC080E290E052
:10066000B3010E945704EA948E2D90E008171907F1
:10067000A8F30EC0F601F7FC8591F7FE81916F019A
:1006800090E0B3010E945704E110EA940150104039
:100690000115110579F7EAC0943611F0993669F51C
:1006A000F7FE08C0F501208131814281538184E049
:1006B00090E00AC0F501808191819C01442737FDBB
:1006C0004095542F82E090E0A80EB91E9FE6F922D3
:1006D00057FF09C050954095309521953F4F4F4F9A
:1006E0005F4FE0E8FE2ACA01B901A1012AE030E02B
:1006F0000E948304D82ED21840C0953729F41F2DAC
:100700001F7E2AE030E01DC01F2D197F9F3661F04B
:10071000903720F4983509F0ACC00FC0903739F00D
:10072000983709F0A6C004C028E030E00AC0106184
:1007300014FD146020E130E004C014FD166020E1D7
:1007400032E017FF08C0F5016081718182819381D9
:1007500044E050E008C0F50180819181BC0180E057
:1007600090E042E050E0A40EB51EA1010E94830477
:10077000D82ED2188FE7F82EF122F6FE0BC05EEFCE
:10078000F522D91438F4F4FE07C0F2FC05C08FEE50
:10079000F82202C01D2D01C0192DF4FE0DC0FE016E
:1007A000ED0DF11D8081803319F499EEF92208C016
:1007B0001F5FF2FE05C003C08F2D867809F01F5F12
:1007C0000F2DF3FC14C0F0FE0FC01E1510F09D2C71
:1007D0000BC09D2C9E0C911A1E2D06C080E290E04D
:1007E000B3010E9457041F5F1E15C0F304C01E15FD
:1007F00010F4E11A01C0EE2404FF0FC080E390E082
:10080000B3010E94570402FF1DC001FD03C088E729
:1008100090E00EC088E590E00BC0802F867891F0C4
:1008200001FF02C08BE201C080E2F7FC8DE290E0A4
:10083000B3010E94570406C080E390E0B3010E9418
:1008400057049A94D914C0F3DA94F101ED0DF11D17
:10085000808190E0B3010E945704DD20A9F706C013
:1008600080E290E0B3010E945704EA94EE20C1F7C1
:1008700043CEF30166817781CB012B96E2E10C94A4
:100880001105FC010590615070400110D8F780956A
:1008900090958E0F9F1F0895FC016150704001904C
:1008A0000110D8F7809590958E0F9F1F08950F9394
:1008B0001F93CF93DF938C01EB018B8181FF1BC0D2
:1008C00082FF0DC02E813F818C819D8128173907C1
:1008D00064F4E881F9810193F983E88306C0E8852F
:1008E000F985802F0995892B31F48E819F8101969E
:1008F0009F838E8302C00FEF1FEFC801DF91CF915E
:100900001F910F910895FA01AA27283051F1203143
:1009100081F1E8946F936E7F6E5F7F4F8F4F9F4F93
:10092000AF4FB1E03ED0B4E03CD0670F781F891FD5
:100930009A1FA11D680F791F8A1F911DA11D6A0FA3
:10094000711D811D911DA11D20D009F468943F9156
:100950002AE0269F11243019305D3193DEF6CF0155
:100960000895462F4770405D4193B3E00FD0C9F71B
:10097000F6CF462F4F70405D4A3318F0495D31FD88
:100980004052419302D0A9F7EACFB4E0A6959795DB
:10099000879577956795BA95C9F7009761057105B1
:1009A00008959B01AC010A2E0694579547953795FB
:1009B0002795BA95C9F7620F731F841F951FA01D55
:1009C0000895AA1BBB1B51E107C0AA1FBB1FA61796
:1009D000B70710F0A61BB70B881F991F5A95A9F7E8
:1009E00080959095BC01CD0108952F923F924F9232
:1009F0005F926F927F928F929F92AF92BF92CF92AF
:100A0000DF92EF92FF920F931F93CF93DF93CDB7B7
:100A1000DEB7CA1BDB0B0FB6F894DEBF0FBECDBF2F
:100A200009942A88398848885F846E847D848C8400
:100A30009B84AA84B984C884DF80EE80FD800C8109
:100A40001B81AA81B981CE0FD11D0FB6F894DEBFEC
:0C0A50000FBECDBFED010895F894FFCF5C
:100A5C002564002C256400546F7563687061640014
:100A6C002C25640A00000000020000000037010081
:040A7C000000000076
:00000001FF
