:100000000C942A000C9447000C9447000C94470071
:100010000C9447000C9447000C9447000C94470044
:100020000C9447000C9449000C9447000C94470032
:100030000C9447000C9447000C9447000C94470024
:100040000C9447000C9447000C9447000C94470014
:100050000C94470011241FBECFE5D4E0DEBFCDBF16
:1000600010E0A0E6B0E0E0E9F1E002C005900D92FA
:10007000AA36B107D9F710E0AAE6B0E001C01D9298
:10008000AF36B107E1F70E9483000C94C6000C94D0
:1000900000001F920F920FB60F9211248F9383E8E6
:1000A00082BF80916B008F5F80936B0080916B00AB
:1000B0008A3038F010926B0080916C008F5F8093D3
:1000C0006C0080916C008A3038F010926C00809146
:1000D0006E008F5F80936E0080916E008A3038F0E2
:1000E00010926E0080916D008F5F80936D00809103
:1000F0006D008A3010F010926D008F910F900FBE3E
:100100000F901F9018958FE087BB8FEF8ABB18BAAE
:100110001BBA83E882BF83E083BF81E089BF789404
:1001200071E020ED37E062E054E048E078BBE09118
:100130006B00F0E0E05AFF4F80818BBBC901019753
:10014000F1F768BBE0916C00F0E0E05AFF4F80816E
:100150008BBBC9010197F1F758BBE0916E00F0E04D
:10016000E05AFF4F808190916A00892B8BBBC901B7
:100170000197F1F748BBE0916D00F0E0E05AFF4FC6
:1001800080818BBBC9010197F1F7D0CFF894FFCFE5
:0A0190007B4237674E6D7D437F6FA1
:00000001FF
