:100000000C942A000C9434000C9434000C943400AA
:100010000C9434000C9434000C9434000C94340090
:100020000C9434000C9434000C9434000C94340080
:100030000C9434000C9434000C9434000C94340070
:100040000C9434000C9434000C9434000C94340060
:100050000C94340011241FBECFE5D4E0DEBFCDBF29
:100060000E9436000C945A000C94000080EF81BB73
:1000700083E084BB8FE082BB51E020E23EE442E0BB
:10008000809908C055BBC9010197F1F715BAC9019C
:100090000197F1F7819B55BB829908C045BBC90107
:1000A0000197F1F715BAC9010197F1F78399E8CFE4
:0800B00045BBE6CFF894FFCF39
:00000001FF
